{"contracts/VEG21Rewards.sol":{"VEG21Rewards":{"abi":[{"inputs":[{"internalType":"address","name":"_veg21Token","type":"address"},{"internalType":"address","name":"initialOwner","type":"address"}],"stateMutability":"nonpayable","type":"constructor"},{"inputs":[{"internalType":"address","name":"owner","type":"address"}],"name":"OwnableInvalidOwner","type":"error"},{"inputs":[{"internalType":"address","name":"account","type":"address"}],"name":"OwnableUnauthorizedAccount","type":"error"},{"inputs":[],"name":"ReentrancyGuardReentrantCall","type":"error"},{"anonymous":false,"inputs":[{"indexed":true,"internalType":"address","name":"user","type":"address"},{"indexed":false,"internalType":"uint256","name":"completionBonus","type":"uint256"}],"name":"ChallengeCompleted","type":"event"},{"anonymous":false,"inputs":[{"indexed":true,"internalType":"address","name":"user","type":"address"},{"indexed":false,"internalType":"enum VEG21Rewards.ChallengeType","name":"challengeType","type":"uint8"},{"indexed":false,"internalType":"uint256","name":"startDate","type":"uint256"}],"name":"ChallengeStarted","type":"event"},{"anonymous":false,"inputs":[{"indexed":true,"internalType":"address","name":"user","type":"address"},{"indexed":false,"internalType":"uint256","name":"day","type":"uint256"},{"indexed":false,"internalType":"uint256","name":"reward","type":"uint256"}],"name":"CheckInRewarded","type":"event"},{"anonymous":false,"inputs":[{"indexed":true,"internalType":"address","name":"previousOwner","type":"address"},{"indexed":true,"internalType":"address","name":"newOwner","type":"address"}],"name":"OwnershipTransferred","type":"event"},{"anonymous":false,"inputs":[{"indexed":false,"internalType":"uint256","name":"dailyReward","type":"uint256"},{"indexed":false,"internalType":"uint256","name":"completionBonus","type":"uint256"}],"name":"RewardAmountsUpdated","type":"event"},{"anonymous":false,"inputs":[{"indexed":true,"internalType":"address","name":"verifier","type":"address"}],"name":"VerifierAdded","type":"event"},{"anonymous":false,"inputs":[{"indexed":true,"internalType":"address","name":"verifier","type":"address"}],"name":"VerifierRemoved","type":"event"},{"inputs":[{"internalType":"address","name":"verifier","type":"address"}],"name":"addVerifier","outputs":[],"stateMutability":"nonpayable","type":"function"},{"inputs":[],"name":"challengeCompletionBonus","outputs":[{"internalType":"uint256","name":"","type":"uint256"}],"stateMutability":"view","type":"function"},{"inputs":[],"name":"dailyCheckInReward","outputs":[{"internalType":"uint256","name":"","type":"uint256"}],"stateMutability":"view","type":"function"},{"inputs":[{"internalType":"address","name":"user","type":"address"}],"name":"getChallengeProgress","outputs":[{"internalType":"enum VEG21Rewards.ChallengeType","name":"challengeType","type":"uint8"},{"internalType":"uint256","name":"startDate","type":"uint256"},{"internalType":"uint256","name":"checkInsCompleted","type":"uint256"},{"internalType":"bool","name":"isComplete","type":"bool"},{"internalType":"uint256","name":"daysRemaining","type":"uint256"}],"stateMutability":"view","type":"function"},{"inputs":[{"internalType":"address","name":"","type":"address"}],"name":"isVerifier","outputs":[{"internalType":"bool","name":"","type":"bool"}],"stateMutability":"view","type":"function"},{"inputs":[],"name":"owner","outputs":[{"internalType":"address","name":"","type":"address"}],"stateMutability":"view","type":"function"},{"inputs":[{"internalType":"address","name":"user","type":"address"}],"name":"recordCheckIn","outputs":[],"stateMutability":"nonpayable","type":"function"},{"inputs":[{"internalType":"address","name":"verifier","type":"address"}],"name":"removeVerifier","outputs":[],"stateMutability":"nonpayable","type":"function"},{"inputs":[],"name":"renounceOwnership","outputs":[],"stateMutability":"nonpayable","type":"function"},{"inputs":[{"internalType":"uint256","name":"newDailyReward","type":"uint256"},{"internalType":"uint256","name":"newCompletionBonus","type":"uint256"}],"name":"setRewardAmounts","outputs":[],"stateMutability":"nonpayable","type":"function"},{"inputs":[{"internalType":"address","name":"user","type":"address"},{"internalType":"enum VEG21Rewards.ChallengeType","name":"challengeType","type":"uint8"}],"name":"startChallenge","outputs":[],"stateMutability":"nonpayable","type":"function"},{"inputs":[],"name":"totalChallengesCompleted","outputs":[{"internalType":"uint256","name":"","type":"uint256"}],"stateMutability":"view","type":"function"},{"inputs":[],"name":"totalRewardsDistributed","outputs":[{"internalType":"uint256","name":"","type":"uint256"}],"stateMutability":"view","type":"function"},{"inputs":[{"internalType":"address","name":"","type":"address"}],"name":"totalRewardsEarned","outputs":[{"internalType":"uint256","name":"","type":"uint256"}],"stateMutability":"view","type":"function"},{"inputs":[{"internalType":"address","name":"newOwner","type":"address"}],"name":"transferOwnership","outputs":[],"stateMutability":"nonpayable","type":"function"},{"inputs":[{"internalType":"address","name":"","type":"address"}],"name":"userChallenges","outputs":[{"internalType":"address","name":"user","type":"address"},{"internalType":"enum VEG21Rewards.ChallengeType","name":"challengeType","type":"uint8"},{"internalType":"uint256","name":"startDate","type":"uint256"},{"internalType":"uint256","name":"checkInsCompleted","type":"uint256"},{"internalType":"bool","name":"isComplete","type":"bool"},{"internalType":"bool","name":"bonusClaimed","type":"bool"}],"stateMutability":"view","type":"function"},{"inputs":[],"name":"veg21Token","outputs":[{"internalType":"contract VEG21Token","name":"","type":"address"}],"stateMutability":"view","type":"function"}],"evm":{"bytecode":{"linkReferences":{},"object":"60a0604052674563918244f400006002556802b5e3af16b18800006003553480156200002a57600080fd5b5060405162001283380380620012838339810160408190526200004d9162000194565b806001600160a01b0381166200007e57604051631e4fbdf760e01b8152600060048201526024015b60405180910390fd5b620000898162000127565b50600180556001600160a01b038216620000f95760405162461bcd60e51b815260206004820152602a60248201527f5645473231526577617264733a20746f6b656e20616464726573732063616e6e6044820152696f74206265207a65726f60b01b606482015260840162000075565b6001600160a01b03918216608052166000908152600660205260409020805460ff19166001179055620001cc565b600080546001600160a01b038381166001600160a01b0319831681178455604051919092169283917f8be0079c531659141344cd1fd0a4f28419497f9722a3daafe3b4186f6b6457e09190a35050565b80516001600160a01b03811681146200018f57600080fd5b919050565b60008060408385031215620001a857600080fd5b620001b38362000177565b9150620001c36020840162000177565b90509250929050565b60805161108d620001f660003960008181610259015281816104d5015261064f015261108d6000f3fe608060405234801561001057600080fd5b506004361061010b5760003560e01c80639000b3d6116100a2578063d113ef7c11610071578063d113ef7c1461027b578063e4f24cb01461028e578063ee172546146102ae578063f235e40a146102b7578063f2fde38b146102db57600080fd5b80639000b3d61461021b5780639d77cefc1461022e578063ca2dfd0a14610241578063cfd4b1e21461025457600080fd5b806334a0de37116100de57806334a0de371461017d57806364b4854e146101e5578063715018a6146101ee5780638da5cb5b146101f657600080fd5b80630718b44114610110578063115e94e51461012c57806320dedd0714610141578063331052181461014a575b600080fd5b61011960025481565b6040519081526020015b60405180910390f35b61013f61013a366004610e70565b6102ee565b005b61011960075481565b61016d610158366004610e70565b60066020526000908152604090205460ff1681565b6040519015158152602001610123565b6101d361018b366004610e70565b60046020526000908152604090208054600182015460028301546003909301546001600160a01b0383169360ff600160a01b9094048416939091808216916101009091041686565b60405161012396959493929190610eca565b61011960035481565b61013f610761565b6000546001600160a01b03165b6040516001600160a01b039091168152602001610123565b61013f610229366004610e70565b610775565b61013f61023c366004610f0d565b61089e565b61013f61024f366004610e70565b610b1b565b6102037f000000000000000000000000000000000000000000000000000000000000000081565b61013f610289366004610f48565b610bd4565b61011961029c366004610e70565b60056020526000908152604090205481565b61011960085481565b6102ca6102c5366004610e70565b610cef565b604051610123959493929190610f6a565b61013f6102e9366004610e70565b610d72565b3360009081526006602052604090205460ff166103265760405162461bcd60e51b815260040161031d90610f9b565b60405180910390fd5b61032e610dad565b6001600160a01b038116600090815260046020526040902060018101546103a15760405162461bcd60e51b815260206004820152602160248201527f5645473231526577617264733a206e6f20616374697665206368616c6c656e676044820152606560f81b606482015260840161031d565b600381015460ff16156104075760405162461bcd60e51b815260206004820152602860248201527f5645473231526577617264733a206368616c6c656e676520616c726561647920604482015267636f6d706c65746560c01b606482015260840161031d565b601581600201541061046b5760405162461bcd60e51b815260206004820152602760248201527f5645473231526577617264733a206d6178696d756d20636865636b2d696e73206044820152661c995858da195960ca1b606482015260840161031d565b60028101805490600061047d83610ff7565b909155505060028181015490546040516334ff261960e21b81526001600160a01b038581166004830152602482019290925260606044820152600d60648201526c3230b4b63cafb1b432b1b5b4b760991b60848201527f00000000000000000000000000000000000000000000000000000000000000009091169063d3fc98649060a401600060405180830381600087803b15801561051b57600080fd5b505af115801561052f573d6000803e3d6000fd5b50506002546001600160a01b0386166000908152600560205260408120805492945092509061055f908490611010565b909155505060025460088054600090610579908490611010565b90915550506002546040516001600160a01b038516917f608e1b6aba01b4ac73be1cac922dcffea9ca33d18174cc1fb26290a5e39907aa916105c391858252602082015260400190565b60405180910390a28060151480156105e557506003820154610100900460ff16155b15610753576003828101805461ffff1916610101179055546040516334ff261960e21b81526001600160a01b038581166004830152602482019290925260606044820152601460648201527331b430b63632b733b2afb1b7b6b83632ba34b7b760611b60848201527f00000000000000000000000000000000000000000000000000000000000000009091169063d3fc98649060a401600060405180830381600087803b15801561069557600080fd5b505af11580156106a9573d6000803e3d6000fd5b50506003546001600160a01b038616600090815260056020526040812080549294509250906106d9908490611010565b9091555050600354600880546000906106f3908490611010565b90915550506007805490600061070883610ff7565b9190505550826001600160a01b03167f57213678a1941131f1846559e4f0509e68d1a52c4d05bf0c3e8514c7a00b5d0b60035460405161074a91815260200190565b60405180910390a25b505061075e60018055565b50565b610769610dd7565b6107736000610e04565b565b61077d610dd7565b6001600160a01b0381166107e95760405162461bcd60e51b815260206004820152602d60248201527f5645473231526577617264733a2076657269666965722063616e6e6f7420626560448201526c207a65726f206164647265737360981b606482015260840161031d565b6001600160a01b03811660009081526006602052604090205460ff16156108525760405162461bcd60e51b815260206004820181905260248201527f5645473231526577617264733a20616c72656164792061207665726966696572604482015260640161031d565b6001600160a01b038116600081815260066020526040808220805460ff19166001179055517f6d05492139c5ea989514a5d2150c028041e5c087e2a39967f67dc7d2655adb819190a250565b3360009081526006602052604090205460ff166108cd5760405162461bcd60e51b815260040161031d90610f9b565b6001600160a01b0382166109355760405162461bcd60e51b815260206004820152602960248201527f5645473231526577617264733a20757365722063616e6e6f74206265207a65726044820152686f206164647265737360b81b606482015260840161031d565b6001600160a01b038216600090815260046020526040902060010154158061097857506001600160a01b03821660009081526004602052604090206003015460ff165b6109df5760405162461bcd60e51b815260206004820152603260248201527f5645473231526577617264733a207573657220616c72656164792068617320616044820152716e20616374697665206368616c6c656e676560701b606482015260840161031d565b6040518060c00160405280836001600160a01b03168152602001826003811115610a0b57610a0b610e92565b815242602080830191909152600060408084018290526060840182905260809093018190526001600160a01b038087168252600483529290208351815493166001600160a01b0319841681178255918401519092909183916001600160a81b03191617600160a01b836003811115610a8557610a85610e92565b021790555060408281015160018301556060830151600283015560808301516003909201805460a09094015115156101000261ff00199315159390931661ffff199094169390931791909117909155516001600160a01b038316907fb8b117d60bee088e4e87743907a4285a99f157dcb129e9c3ba5733d261e499cf90610b0f9084904290611029565b60405180910390a25050565b610b23610dd7565b6001600160a01b03811660009081526006602052604090205460ff16610b8b5760405162461bcd60e51b815260206004820152601c60248201527f5645473231526577617264733a206e6f74206120766572696669657200000000604482015260640161031d565b6001600160a01b038116600081815260066020526040808220805460ff19169055517f44a3cd4eb5cc5748f6169df057b1cb2ae4c383e87cd94663c430e095d4cba4249190a250565b610bdc610dd7565b60008211610c405760405162461bcd60e51b815260206004820152602b60248201527f5645473231526577617264733a206461696c7920726577617264206d7573742060448201526a626520706f73697469766560a81b606482015260840161031d565b60008111610ca85760405162461bcd60e51b815260206004820152602f60248201527f5645473231526577617264733a20636f6d706c6574696f6e20626f6e7573206d60448201526e75737420626520706f73697469766560881b606482015260840161031d565b6002829055600381905560408051838152602081018390527f08c3219f2638ed0ddeebb022716ff77cc06a236f399256daec66491b774ee7f2910160405180910390a15050565b6001600160a01b038116600090815260046020526040812060038101548291829182918291829060ff16158015610d2a575060158260020154105b15610d42576002820154610d3f906015611044565b90505b81546001830154600284015460039094015460ff600160a01b90930483169b919a50939850921695509350915050565b610d7a610dd7565b6001600160a01b038116610da457604051631e4fbdf760e01b81526000600482015260240161031d565b61075e81610e04565b600260015403610dd057604051633ee5aeb560e01b815260040160405180910390fd5b6002600155565b6000546001600160a01b031633146107735760405163118cdaa760e01b815233600482015260240161031d565b600080546001600160a01b038381166001600160a01b0319831681178455604051919092169283917f8be0079c531659141344cd1fd0a4f28419497f9722a3daafe3b4186f6b6457e09190a35050565b80356001600160a01b0381168114610e6b57600080fd5b919050565b600060208284031215610e8257600080fd5b610e8b82610e54565b9392505050565b634e487b7160e01b600052602160045260246000fd5b60048110610ec657634e487b7160e01b600052602160045260246000fd5b9052565b6001600160a01b038716815260c08101610ee76020830188610ea8565b604082019590955260608101939093529015156080830152151560a09091015292915050565b60008060408385031215610f2057600080fd5b610f2983610e54565b9150602083013560048110610f3d57600080fd5b809150509250929050565b60008060408385031215610f5b57600080fd5b50508035926020909101359150565b60a08101610f788288610ea8565b602082019590955260408101939093529015156060830152608090910152919050565b60208082526026908201527f5645473231526577617264733a2063616c6c6572206973206e6f7420612076656040820152653934b334b2b960d11b606082015260800190565b634e487b7160e01b600052601160045260246000fd5b60006001820161100957611009610fe1565b5060010190565b8082018082111561102357611023610fe1565b92915050565b604081016110378285610ea8565b8260208301529392505050565b8181038181111561102357611023610fe156fea2646970667358221220450253b6239ceb685ae55efdbffb4e4dbe281ebf526c2fb439d63fffc4e050d464736f6c63430008140033","opcodes":"PUSH1 0xA0 PUSH1 0x40 MSTORE PUSH8 0x4563918244F40000 PUSH1 0x2 SSTORE PUSH9 0x2B5E3AF16B1880000 PUSH1 0x3 SSTORE CALLVALUE DUP1 ISZERO PUSH3 0x2A JUMPI PUSH1 0x0 DUP1 REVERT JUMPDEST POP PUSH1 0x40 MLOAD PUSH3 0x1283 CODESIZE SUB DUP1 PUSH3 0x1283 DUP4 CODECOPY DUP2 ADD PUSH1 0x40 DUP2 SWAP1 MSTORE PUSH3 0x4D SWAP2 PUSH3 0x194 JUMP JUMPDEST DUP1 PUSH1 0x1 PUSH1 0x1 PUSH1 0xA0 SHL SUB DUP2 AND PUSH3 0x7E JUMPI PUSH1 0x40 MLOAD PUSH4 0x1E4FBDF7 PUSH1 0xE0 SHL DUP2 MSTORE PUSH1 0x0 PUSH1 0x4 DUP3 ADD MSTORE PUSH1 0x24 ADD JUMPDEST PUSH1 0x40 MLOAD DUP1 SWAP2 SUB SWAP1 REVERT JUMPDEST PUSH3 0x89 DUP2 PUSH3 0x127 JUMP JUMPDEST POP PUSH1 0x1 DUP1 SSTORE PUSH1 0x1 PUSH1 0x1 PUSH1 0xA0 SHL SUB DUP3 AND PUSH3 0xF9 JUMPI PUSH1 0x40 MLOAD PUSH3 0x461BCD PUSH1 0xE5 SHL DUP2 MSTORE PUSH1 0x20 PUSH1 0x4 DUP3 ADD MSTORE PUSH1 0x2A PUSH1 0x24 DUP3 ADD MSTORE PUSH32 0x5645473231526577617264733A20746F6B656E20616464726573732063616E6E PUSH1 0x44 DUP3 ADD MSTORE PUSH10 0x6F74206265207A65726F PUSH1 0xB0 SHL PUSH1 0x64 DUP3 ADD MSTORE PUSH1 0x84 ADD PUSH3 0x75 JUMP JUMPDEST PUSH1 0x1 PUSH1 0x1 PUSH1 0xA0 SHL SUB SWAP2 DUP3 AND PUSH1 0x80 MSTORE AND PUSH1 0x0 SWAP1 DUP2 MSTORE PUSH1 0x6 PUSH1 0x20 MSTORE PUSH1 0x40 SWAP1 KECCAK256 DUP1 SLOAD PUSH1 0xFF NOT AND PUSH1 0x1 OR SWAP1 SSTORE PUSH3 0x1CC JUMP JUMPDEST PUSH1 0x0 DUP1 SLOAD PUSH1 0x1 PUSH1 0x1 PUSH1 0xA0 SHL SUB DUP4 DUP2 AND PUSH1 0x1 PUSH1 0x1 PUSH1 0xA0 SHL SUB NOT DUP4 AND DUP2 OR DUP5 SSTORE PUSH1 0x40 MLOAD SWAP2 SWAP1 SWAP3 AND SWAP3 DUP4 SWAP2 PUSH32 0x8BE0079C531659141344CD1FD0A4F28419497F9722A3DAAFE3B4186F6B6457E0 SWAP2 SWAP1 LOG3 POP POP JUMP JUMPDEST DUP1 MLOAD PUSH1 0x1 PUSH1 0x1 PUSH1 0xA0 SHL SUB DUP2 AND DUP2 EQ PUSH3 0x18F JUMPI PUSH1 0x0 DUP1 REVERT JUMPDEST SWAP2 SWAP1 POP JUMP JUMPDEST PUSH1 0x0 DUP1 PUSH1 0x40 DUP4 DUP6 SUB SLT ISZERO PUSH3 0x1A8 JUMPI PUSH1 0x0 DUP1 REVERT JUMPDEST PUSH3 0x1B3 DUP4 PUSH3 0x177 JUMP JUMPDEST SWAP2 POP PUSH3 0x1C3 PUSH1 0x20 DUP5 ADD PUSH3 0x177 JUMP JUMPDEST SWAP1 POP SWAP3 POP SWAP3 SWAP1 POP JUMP JUMPDEST PUSH1 0x80 MLOAD PUSH2 0x108D PUSH3 0x1F6 PUSH1 0x0 CODECOPY PUSH1 0x0 DUP2 DUP2 PUSH2 0x259 ADD MSTORE DUP2 DUP2 PUSH2 0x4D5 ADD MSTORE PUSH2 0x64F ADD MSTORE PUSH2 0x108D PUSH1 0x0 RETURN INVALID PUSH1 0x80 PUSH1 0x40 MSTORE CALLVALUE DUP1 ISZERO PUSH2 0x10 JUMPI PUSH1 0x0 DUP1 REVERT JUMPDEST POP PUSH1 0x4 CALLDATASIZE LT PUSH2 0x10B JUMPI PUSH1 0x0 CALLDATALOAD PUSH1 0xE0 SHR DUP1 PUSH4 0x9000B3D6 GT PUSH2 0xA2 JUMPI DUP1 PUSH4 0xD113EF7C GT PUSH2 0x71 JUMPI DUP1 PUSH4 0xD113EF7C EQ PUSH2 0x27B JUMPI DUP1 PUSH4 0xE4F24CB0 EQ PUSH2 0x28E JUMPI DUP1 PUSH4 0xEE172546 EQ PUSH2 0x2AE JUMPI DUP1 PUSH4 0xF235E40A EQ PUSH2 0x2B7 JUMPI DUP1 PUSH4 0xF2FDE38B EQ PUSH2 0x2DB JUMPI PUSH1 0x0 DUP1 REVERT JUMPDEST DUP1 PUSH4 0x9000B3D6 EQ PUSH2 0x21B JUMPI DUP1 PUSH4 0x9D77CEFC EQ PUSH2 0x22E JUMPI DUP1 PUSH4 0xCA2DFD0A EQ PUSH2 0x241 JUMPI DUP1 PUSH4 0xCFD4B1E2 EQ PUSH2 0x254 JUMPI PUSH1 0x0 DUP1 REVERT JUMPDEST DUP1 PUSH4 0x34A0DE37 GT PUSH2 0xDE JUMPI DUP1 PUSH4 0x34A0DE37 EQ PUSH2 0x17D JUMPI DUP1 PUSH4 0x64B4854E EQ PUSH2 0x1E5 JUMPI DUP1 PUSH4 0x715018A6 EQ PUSH2 0x1EE JUMPI DUP1 PUSH4 0x8DA5CB5B EQ PUSH2 0x1F6 JUMPI PUSH1 0x0 DUP1 REVERT JUMPDEST DUP1 PUSH4 0x718B441 EQ PUSH2 0x110 JUMPI DUP1 PUSH4 0x115E94E5 EQ PUSH2 0x12C JUMPI DUP1 PUSH4 0x20DEDD07 EQ PUSH2 0x141 JUMPI DUP1 PUSH4 0x33105218 EQ PUSH2 0x14A JUMPI JUMPDEST PUSH1 0x0 DUP1 REVERT JUMPDEST PUSH2 0x119 PUSH1 0x2 SLOAD DUP2 JUMP JUMPDEST PUSH1 0x40 MLOAD SWAP1 DUP2 MSTORE PUSH1 0x20 ADD JUMPDEST PUSH1 0x40 MLOAD DUP1 SWAP2 SUB SWAP1 RETURN JUMPDEST PUSH2 0x13F PUSH2 0x13A CALLDATASIZE PUSH1 0x4 PUSH2 0xE70 JUMP JUMPDEST PUSH2 0x2EE JUMP JUMPDEST STOP JUMPDEST PUSH2 0x119 PUSH1 0x7 SLOAD DUP2 JUMP JUMPDEST PUSH2 0x16D PUSH2 0x158 CALLDATASIZE PUSH1 0x4 PUSH2 0xE70 JUMP JUMPDEST PUSH1 0x6 PUSH1 0x20 MSTORE PUSH1 0x0 SWAP1 DUP2 MSTORE PUSH1 0x40 SWAP1 KECCAK256 SLOAD PUSH1 0xFF AND DUP2 JUMP JUMPDEST PUSH1 0x40 MLOAD SWAP1 ISZERO ISZERO DUP2 MSTORE PUSH1 0x20 ADD PUSH2 0x123 JUMP JUMPDEST PUSH2 0x1D3 PUSH2 0x18B CALLDATASIZE PUSH1 0x4 PUSH2 0xE70 JUMP JUMPDEST PUSH1 0x4 PUSH1 0x20 MSTORE PUSH1 0x0 SWAP1 DUP2 MSTORE PUSH1 0x40 SWAP1 KECCAK256 DUP1 SLOAD PUSH1 0x1 DUP3 ADD SLOAD PUSH1 0x2 DUP4 ADD SLOAD PUSH1 0x3 SWAP1 SWAP4 ADD SLOAD PUSH1 0x1 PUSH1 0x1 PUSH1 0xA0 SHL SUB DUP4 AND SWAP4 PUSH1 0xFF PUSH1 0x1 PUSH1 0xA0 SHL SWAP1 SWAP5 DIV DUP5 AND SWAP4 SWAP1 SWAP2 DUP1 DUP3 AND SWAP2 PUSH2 0x100 SWAP1 SWAP2 DIV AND DUP7 JUMP JUMPDEST PUSH1 0x40 MLOAD PUSH2 0x123 SWAP7 SWAP6 SWAP5 SWAP4 SWAP3 SWAP2 SWAP1 PUSH2 0xECA JUMP JUMPDEST PUSH2 0x119 PUSH1 0x3 SLOAD DUP2 JUMP JUMPDEST PUSH2 0x13F PUSH2 0x761 JUMP JUMPDEST PUSH1 0x0 SLOAD PUSH1 0x1 PUSH1 0x1 PUSH1 0xA0 SHL SUB AND JUMPDEST PUSH1 0x40 MLOAD PUSH1 0x1 PUSH1 0x1 PUSH1 0xA0 SHL SUB SWAP1 SWAP2 AND DUP2 MSTORE PUSH1 0x20 ADD PUSH2 0x123 JUMP JUMPDEST PUSH2 0x13F PUSH2 0x229 CALLDATASIZE PUSH1 0x4 PUSH2 0xE70 JUMP JUMPDEST PUSH2 0x775 JUMP JUMPDEST PUSH2 0x13F PUSH2 0x23C CALLDATASIZE PUSH1 0x4 PUSH2 0xF0D JUMP JUMPDEST PUSH2 0x89E JUMP JUMPDEST PUSH2 0x13F PUSH2 0x24F CALLDATASIZE PUSH1 0x4 PUSH2 0xE70 JUMP JUMPDEST PUSH2 0xB1B JUMP JUMPDEST PUSH2 0x203 PUSH32 0x0 DUP2 JUMP JUMPDEST PUSH2 0x13F PUSH2 0x289 CALLDATASIZE PUSH1 0x4 PUSH2 0xF48 JUMP JUMPDEST PUSH2 0xBD4 JUMP JUMPDEST PUSH2 0x119 PUSH2 0x29C CALLDATASIZE PUSH1 0x4 PUSH2 0xE70 JUMP JUMPDEST PUSH1 0x5 PUSH1 0x20 MSTORE PUSH1 0x0 SWAP1 DUP2 MSTORE PUSH1 0x40 SWAP1 KECCAK256 SLOAD DUP2 JUMP JUMPDEST PUSH2 0x119 PUSH1 0x8 SLOAD DUP2 JUMP JUMPDEST PUSH2 0x2CA PUSH2 0x2C5 CALLDATASIZE PUSH1 0x4 PUSH2 0xE70 JUMP JUMPDEST PUSH2 0xCEF JUMP JUMPDEST PUSH1 0x40 MLOAD PUSH2 0x123 SWAP6 SWAP5 SWAP4 SWAP3 SWAP2 SWAP1 PUSH2 0xF6A JUMP JUMPDEST PUSH2 0x13F PUSH2 0x2E9 CALLDATASIZE PUSH1 0x4 PUSH2 0xE70 JUMP JUMPDEST PUSH2 0xD72 JUMP JUMPDEST CALLER PUSH1 0x0 SWAP1 DUP2 MSTORE PUSH1 0x6 PUSH1 0x20 MSTORE PUSH1 0x40 SWAP1 KECCAK256 SLOAD PUSH1 0xFF AND PUSH2 0x326 JUMPI PUSH1 0x40 MLOAD PUSH3 0x461BCD PUSH1 0xE5 SHL DUP2 MSTORE PUSH1 0x4 ADD PUSH2 0x31D SWAP1 PUSH2 0xF9B JUMP JUMPDEST PUSH1 0x40 MLOAD DUP1 SWAP2 SUB SWAP1 REVERT JUMPDEST PUSH2 0x32E PUSH2 0xDAD JUMP JUMPDEST PUSH1 0x1 PUSH1 0x1 PUSH1 0xA0 SHL SUB DUP2 AND PUSH1 0x0 SWAP1 DUP2 MSTORE PUSH1 0x4 PUSH1 0x20 MSTORE PUSH1 0x40 SWAP1 KECCAK256 PUSH1 0x1 DUP2 ADD SLOAD PUSH2 0x3A1 JUMPI PUSH1 0x40 MLOAD PUSH3 0x461BCD PUSH1 0xE5 SHL DUP2 MSTORE PUSH1 0x20 PUSH1 0x4 DUP3 ADD MSTORE PUSH1 0x21 PUSH1 0x24 DUP3 ADD MSTORE PUSH32 0x5645473231526577617264733A206E6F20616374697665206368616C6C656E67 PUSH1 0x44 DUP3 ADD MSTORE PUSH1 0x65 PUSH1 0xF8 SHL PUSH1 0x64 DUP3 ADD MSTORE PUSH1 0x84 ADD PUSH2 0x31D JUMP JUMPDEST PUSH1 0x3 DUP2 ADD SLOAD PUSH1 0xFF AND ISZERO PUSH2 0x407 JUMPI PUSH1 0x40 MLOAD PUSH3 0x461BCD PUSH1 0xE5 SHL DUP2 MSTORE PUSH1 0x20 PUSH1 0x4 DUP3 ADD MSTORE PUSH1 0x28 PUSH1 0x24 DUP3 ADD MSTORE PUSH32 0x5645473231526577617264733A206368616C6C656E676520616C726561647920 PUSH1 0x44 DUP3 ADD MSTORE PUSH8 0x636F6D706C657465 PUSH1 0xC0 SHL PUSH1 0x64 DUP3 ADD MSTORE PUSH1 0x84 ADD PUSH2 0x31D JUMP JUMPDEST PUSH1 0x15 DUP2 PUSH1 0x2 ADD SLOAD LT PUSH2 0x46B JUMPI PUSH1 0x40 MLOAD PUSH3 0x461BCD PUSH1 0xE5 SHL DUP2 MSTORE PUSH1 0x20 PUSH1 0x4 DUP3 ADD MSTORE PUSH1 0x27 PUSH1 0x24 DUP3 ADD MSTORE PUSH32 0x5645473231526577617264733A206D6178696D756D20636865636B2D696E7320 PUSH1 0x44 DUP3 ADD MSTORE PUSH7 0x1C995858DA1959 PUSH1 0xCA SHL PUSH1 0x64 DUP3 ADD MSTORE PUSH1 0x84 ADD PUSH2 0x31D JUMP JUMPDEST PUSH1 0x2 DUP2 ADD DUP1 SLOAD SWAP1 PUSH1 0x0 PUSH2 0x47D DUP4 PUSH2 0xFF7 JUMP JUMPDEST SWAP1 SWAP2 SSTORE POP POP PUSH1 0x2 DUP2 DUP2 ADD SLOAD SWAP1 SLOAD PUSH1 0x40 MLOAD PUSH4 0x34FF2619 PUSH1 0xE2 SHL DUP2 MSTORE PUSH1 0x1 PUSH1 0x1 PUSH1 0xA0 SHL SUB DUP6 DUP2 AND PUSH1 0x4 DUP4 ADD MSTORE PUSH1 0x24 DUP3 ADD SWAP3 SWAP1 SWAP3 MSTORE PUSH1 0x60 PUSH1 0x44 DUP3 ADD MSTORE PUSH1 0xD PUSH1 0x64 DUP3 ADD MSTORE PUSH13 0x3230B4B63CAFB1B432B1B5B4B7 PUSH1 0x99 SHL PUSH1 0x84 DUP3 ADD MSTORE PUSH32 0x0 SWAP1 SWAP2 AND SWAP1 PUSH4 0xD3FC9864 SWAP1 PUSH1 0xA4 ADD PUSH1 0x0 PUSH1 0x40 MLOAD DUP1 DUP4 SUB DUP2 PUSH1 0x0 DUP8 DUP1 EXTCODESIZE ISZERO DUP1 ISZERO PUSH2 0x51B JUMPI PUSH1 0x0 DUP1 REVERT JUMPDEST POP GAS CALL ISZERO DUP1 ISZERO PUSH2 0x52F JUMPI RETURNDATASIZE PUSH1 0x0 DUP1 RETURNDATACOPY RETURNDATASIZE PUSH1 0x0 REVERT JUMPDEST POP POP PUSH1 0x2 SLOAD PUSH1 0x1 PUSH1 0x1 PUSH1 0xA0 SHL SUB DUP7 AND PUSH1 0x0 SWAP1 DUP2 MSTORE PUSH1 0x5 PUSH1 0x20 MSTORE PUSH1 0x40 DUP2 KECCAK256 DUP1 SLOAD SWAP3 SWAP5 POP SWAP3 POP SWAP1 PUSH2 0x55F SWAP1 DUP5 SWAP1 PUSH2 0x1010 JUMP JUMPDEST SWAP1 SWAP2 SSTORE POP POP PUSH1 0x2 SLOAD PUSH1 0x8 DUP1 SLOAD PUSH1 0x0 SWAP1 PUSH2 0x579 SWAP1 DUP5 SWAP1 PUSH2 0x1010 JUMP JUMPDEST SWAP1 SWAP2 SSTORE POP POP PUSH1 0x2 SLOAD PUSH1 0x40 MLOAD PUSH1 0x1 PUSH1 0x1 PUSH1 0xA0 SHL SUB DUP6 AND SWAP2 PUSH32 0x608E1B6ABA01B4AC73BE1CAC922DCFFEA9CA33D18174CC1FB26290A5E39907AA SWAP2 PUSH2 0x5C3 SWAP2 DUP6 DUP3 MSTORE PUSH1 0x20 DUP3 ADD MSTORE PUSH1 0x40 ADD SWAP1 JUMP JUMPDEST PUSH1 0x40 MLOAD DUP1 SWAP2 SUB SWAP1 LOG2 DUP1 PUSH1 0x15 EQ DUP1 ISZERO PUSH2 0x5E5 JUMPI POP PUSH1 0x3 DUP3 ADD SLOAD PUSH2 0x100 SWAP1 DIV PUSH1 0xFF AND ISZERO JUMPDEST ISZERO PUSH2 0x753 JUMPI PUSH1 0x3 DUP3 DUP2 ADD DUP1 SLOAD PUSH2 0xFFFF NOT AND PUSH2 0x101 OR SWAP1 SSTORE SLOAD PUSH1 0x40 MLOAD PUSH4 0x34FF2619 PUSH1 0xE2 SHL DUP2 MSTORE PUSH1 0x1 PUSH1 0x1 PUSH1 0xA0 SHL SUB DUP6 DUP2 AND PUSH1 0x4 DUP4 ADD MSTORE PUSH1 0x24 DUP3 ADD SWAP3 SWAP1 SWAP3 MSTORE PUSH1 0x60 PUSH1 0x44 DUP3 ADD MSTORE PUSH1 0x14 PUSH1 0x64 DUP3 ADD MSTORE PUSH20 0x31B430B63632B733B2AFB1B7B6B83632BA34B7B7 PUSH1 0x61 SHL PUSH1 0x84 DUP3 ADD MSTORE PUSH32 0x0 SWAP1 SWAP2 AND SWAP1 PUSH4 0xD3FC9864 SWAP1 PUSH1 0xA4 ADD PUSH1 0x0 PUSH1 0x40 MLOAD DUP1 DUP4 SUB DUP2 PUSH1 0x0 DUP8 DUP1 EXTCODESIZE ISZERO DUP1 ISZERO PUSH2 0x695 JUMPI PUSH1 0x0 DUP1 REVERT JUMPDEST POP GAS CALL ISZERO DUP1 ISZERO PUSH2 0x6A9 JUMPI RETURNDATASIZE PUSH1 0x0 DUP1 RETURNDATACOPY RETURNDATASIZE PUSH1 0x0 REVERT JUMPDEST POP POP PUSH1 0x3 SLOAD PUSH1 0x1 PUSH1 0x1 PUSH1 0xA0 SHL SUB DUP7 AND PUSH1 0x0 SWAP1 DUP2 MSTORE PUSH1 0x5 PUSH1 0x20 MSTORE PUSH1 0x40 DUP2 KECCAK256 DUP1 SLOAD SWAP3 SWAP5 POP SWAP3 POP SWAP1 PUSH2 0x6D9 SWAP1 DUP5 SWAP1 PUSH2 0x1010 JUMP JUMPDEST SWAP1 SWAP2 SSTORE POP POP PUSH1 0x3 SLOAD PUSH1 0x8 DUP1 SLOAD PUSH1 0x0 SWAP1 PUSH2 0x6F3 SWAP1 DUP5 SWAP1 PUSH2 0x1010 JUMP JUMPDEST SWAP1 SWAP2 SSTORE POP POP PUSH1 0x7 DUP1 SLOAD SWAP1 PUSH1 0x0 PUSH2 0x708 DUP4 PUSH2 0xFF7 JUMP JUMPDEST SWAP2 SWAP1 POP SSTORE POP DUP3 PUSH1 0x1 PUSH1 0x1 PUSH1 0xA0 SHL SUB AND PUSH32 0x57213678A1941131F1846559E4F0509E68D1A52C4D05BF0C3E8514C7A00B5D0B PUSH1 0x3 SLOAD PUSH1 0x40 MLOAD PUSH2 0x74A SWAP2 DUP2 MSTORE PUSH1 0x20 ADD SWAP1 JUMP JUMPDEST PUSH1 0x40 MLOAD DUP1 SWAP2 SUB SWAP1 LOG2 JUMPDEST POP POP PUSH2 0x75E PUSH1 0x1 DUP1 SSTORE JUMP JUMPDEST POP JUMP JUMPDEST PUSH2 0x769 PUSH2 0xDD7 JUMP JUMPDEST PUSH2 0x773 PUSH1 0x0 PUSH2 0xE04 JUMP JUMPDEST JUMP JUMPDEST PUSH2 0x77D PUSH2 0xDD7 JUMP JUMPDEST PUSH1 0x1 PUSH1 0x1 PUSH1 0xA0 SHL SUB DUP2 AND PUSH2 0x7E9 JUMPI PUSH1 0x40 MLOAD PUSH3 0x461BCD PUSH1 0xE5 SHL DUP2 MSTORE PUSH1 0x20 PUSH1 0x4 DUP3 ADD MSTORE PUSH1 0x2D PUSH1 0x24 DUP3 ADD MSTORE PUSH32 0x5645473231526577617264733A2076657269666965722063616E6E6F74206265 PUSH1 0x44 DUP3 ADD MSTORE PUSH13 0x207A65726F2061646472657373 PUSH1 0x98 SHL PUSH1 0x64 DUP3 ADD MSTORE PUSH1 0x84 ADD PUSH2 0x31D JUMP JUMPDEST PUSH1 0x1 PUSH1 0x1 PUSH1 0xA0 SHL SUB DUP2 AND PUSH1 0x0 SWAP1 DUP2 MSTORE PUSH1 0x6 PUSH1 0x20 MSTORE PUSH1 0x40 SWAP1 KECCAK256 SLOAD PUSH1 0xFF AND ISZERO PUSH2 0x852 JUMPI PUSH1 0x40 MLOAD PUSH3 0x461BCD PUSH1 0xE5 SHL DUP2 MSTORE PUSH1 0x20 PUSH1 0x4 DUP3 ADD DUP2 SWAP1 MSTORE PUSH1 0x24 DUP3 ADD MSTORE PUSH32 0x5645473231526577617264733A20616C72656164792061207665726966696572 PUSH1 0x44 DUP3 ADD MSTORE PUSH1 0x64 ADD PUSH2 0x31D JUMP JUMPDEST PUSH1 0x1 PUSH1 0x1 PUSH1 0xA0 SHL SUB DUP2 AND PUSH1 0x0 DUP2 DUP2 MSTORE PUSH1 0x6 PUSH1 0x20 MSTORE PUSH1 0x40 DUP1 DUP3 KECCAK256 DUP1 SLOAD PUSH1 0xFF NOT AND PUSH1 0x1 OR SWAP1 SSTORE MLOAD PUSH32 0x6D05492139C5EA989514A5D2150C028041E5C087E2A39967F67DC7D2655ADB81 SWAP2 SWAP1 LOG2 POP JUMP JUMPDEST CALLER PUSH1 0x0 SWAP1 DUP2 MSTORE PUSH1 0x6 PUSH1 0x20 MSTORE PUSH1 0x40 SWAP1 KECCAK256 SLOAD PUSH1 0xFF AND PUSH2 0x8CD JUMPI PUSH1 0x40 MLOAD PUSH3 0x461BCD PUSH1 0xE5 SHL DUP2 MSTORE PUSH1 0x4 ADD PUSH2 0x31D SWAP1 PUSH2 0xF9B JUMP JUMPDEST PUSH1 0x1 PUSH1 0x1 PUSH1 0xA0 SHL SUB DUP3 AND PUSH2 0x935 JUMPI PUSH1 0x40 MLOAD PUSH3 0x461BCD PUSH1 0xE5 SHL DUP2 MSTORE PUSH1 0x20 PUSH1 0x4 DUP3 ADD MSTORE PUSH1 0x29 PUSH1 0x24 DUP3 ADD MSTORE PUSH32 0x5645473231526577617264733A20757365722063616E6E6F74206265207A6572 PUSH1 0x44 DUP3 ADD MSTORE PUSH9 0x6F2061646472657373 PUSH1 0xB8 SHL PUSH1 0x64 DUP3 ADD MSTORE PUSH1 0x84 ADD PUSH2 0x31D JUMP JUMPDEST PUSH1 0x1 PUSH1 0x1 PUSH1 0xA0 SHL SUB DUP3 AND PUSH1 0x0 SWAP1 DUP2 MSTORE PUSH1 0x4 PUSH1 0x20 MSTORE PUSH1 0x40 SWAP1 KECCAK256 PUSH1 0x1 ADD SLOAD ISZERO DUP1 PUSH2 0x978 JUMPI POP PUSH1 0x1 PUSH1 0x1 PUSH1 0xA0 SHL SUB DUP3 AND PUSH1 0x0 SWAP1 DUP2 MSTORE PUSH1 0x4 PUSH1 0x20 MSTORE PUSH1 0x40 SWAP1 KECCAK256 PUSH1 0x3 ADD SLOAD PUSH1 0xFF AND JUMPDEST PUSH2 0x9DF JUMPI PUSH1 0x40 MLOAD PUSH3 0x461BCD PUSH1 0xE5 SHL DUP2 MSTORE PUSH1 0x20 PUSH1 0x4 DUP3 ADD MSTORE PUSH1 0x32 PUSH1 0x24 DUP3 ADD MSTORE PUSH32 0x5645473231526577617264733A207573657220616C7265616479206861732061 PUSH1 0x44 DUP3 ADD MSTORE PUSH18 0x6E20616374697665206368616C6C656E6765 PUSH1 0x70 SHL PUSH1 0x64 DUP3 ADD MSTORE PUSH1 0x84 ADD PUSH2 0x31D JUMP JUMPDEST PUSH1 0x40 MLOAD DUP1 PUSH1 0xC0 ADD PUSH1 0x40 MSTORE DUP1 DUP4 PUSH1 0x1 PUSH1 0x1 PUSH1 0xA0 SHL SUB AND DUP2 MSTORE PUSH1 0x20 ADD DUP3 PUSH1 0x3 DUP2 GT ISZERO PUSH2 0xA0B JUMPI PUSH2 0xA0B PUSH2 0xE92 JUMP JUMPDEST DUP2 MSTORE TIMESTAMP PUSH1 0x20 DUP1 DUP4 ADD SWAP2 SWAP1 SWAP2 MSTORE PUSH1 0x0 PUSH1 0x40 DUP1 DUP5 ADD DUP3 SWAP1 MSTORE PUSH1 0x60 DUP5 ADD DUP3 SWAP1 MSTORE PUSH1 0x80 SWAP1 SWAP4 ADD DUP2 SWAP1 MSTORE PUSH1 0x1 PUSH1 0x1 PUSH1 0xA0 SHL SUB DUP1 DUP8 AND DUP3 MSTORE PUSH1 0x4 DUP4 MSTORE SWAP3 SWAP1 KECCAK256 DUP4 MLOAD DUP2 SLOAD SWAP4 AND PUSH1 0x1 PUSH1 0x1 PUSH1 0xA0 SHL SUB NOT DUP5 AND DUP2 OR DUP3 SSTORE SWAP2 DUP5 ADD MLOAD SWAP1 SWAP3 SWAP1 SWAP2 DUP4 SWAP2 PUSH1 0x1 PUSH1 0x1 PUSH1 0xA8 SHL SUB NOT AND OR PUSH1 0x1 PUSH1 0xA0 SHL DUP4 PUSH1 0x3 DUP2 GT ISZERO PUSH2 0xA85 JUMPI PUSH2 0xA85 PUSH2 0xE92 JUMP JUMPDEST MUL OR SWAP1 SSTORE POP PUSH1 0x40 DUP3 DUP2 ADD MLOAD PUSH1 0x1 DUP4 ADD SSTORE PUSH1 0x60 DUP4 ADD MLOAD PUSH1 0x2 DUP4 ADD SSTORE PUSH1 0x80 DUP4 ADD MLOAD PUSH1 0x3 SWAP1 SWAP3 ADD DUP1 SLOAD PUSH1 0xA0 SWAP1 SWAP5 ADD MLOAD ISZERO ISZERO PUSH2 0x100 MUL PUSH2 0xFF00 NOT SWAP4 ISZERO ISZERO SWAP4 SWAP1 SWAP4 AND PUSH2 0xFFFF NOT SWAP1 SWAP5 AND SWAP4 SWAP1 SWAP4 OR SWAP2 SWAP1 SWAP2 OR SWAP1 SWAP2 SSTORE MLOAD PUSH1 0x1 PUSH1 0x1 PUSH1 0xA0 SHL SUB DUP4 AND SWAP1 PUSH32 0xB8B117D60BEE088E4E87743907A4285A99F157DCB129E9C3BA5733D261E499CF SWAP1 PUSH2 0xB0F SWAP1 DUP5 SWAP1 TIMESTAMP SWAP1 PUSH2 0x1029 JUMP JUMPDEST PUSH1 0x40 MLOAD DUP1 SWAP2 SUB SWAP1 LOG2 POP POP JUMP JUMPDEST PUSH2 0xB23 PUSH2 0xDD7 JUMP JUMPDEST PUSH1 0x1 PUSH1 0x1 PUSH1 0xA0 SHL SUB DUP2 AND PUSH1 0x0 SWAP1 DUP2 MSTORE PUSH1 0x6 PUSH1 0x20 MSTORE PUSH1 0x40 SWAP1 KECCAK256 SLOAD PUSH1 0xFF AND PUSH2 0xB8B JUMPI PUSH1 0x40 MLOAD PUSH3 0x461BCD PUSH1 0xE5 SHL DUP2 MSTORE PUSH1 0x20 PUSH1 0x4 DUP3 ADD MSTORE PUSH1 0x1C PUSH1 0x24 DUP3 ADD MSTORE PUSH32 0x5645473231526577617264733A206E6F74206120766572696669657200000000 PUSH1 0x44 DUP3 ADD MSTORE PUSH1 0x64 ADD PUSH2 0x31D JUMP JUMPDEST PUSH1 0x1 PUSH1 0x1 PUSH1 0xA0 SHL SUB DUP2 AND PUSH1 0x0 DUP2 DUP2 MSTORE PUSH1 0x6 PUSH1 0x20 MSTORE PUSH1 0x40 DUP1 DUP3 KECCAK256 DUP1 SLOAD PUSH1 0xFF NOT AND SWAP1 SSTORE MLOAD PUSH32 0x44A3CD4EB5CC5748F6169DF057B1CB2AE4C383E87CD94663C430E095D4CBA424 SWAP2 SWAP1 LOG2 POP JUMP JUMPDEST PUSH2 0xBDC PUSH2 0xDD7 JUMP JUMPDEST PUSH1 0x0 DUP3 GT PUSH2 0xC40 JUMPI PUSH1 0x40 MLOAD PUSH3 0x461BCD PUSH1 0xE5 SHL DUP2 MSTORE PUSH1 0x20 PUSH1 0x4 DUP3 ADD MSTORE PUSH1 0x2B PUSH1 0x24 DUP3 ADD MSTORE PUSH32 0x5645473231526577617264733A206461696C7920726577617264206D75737420 PUSH1 0x44 DUP3 ADD MSTORE PUSH11 0x626520706F736974697665 PUSH1 0xA8 SHL PUSH1 0x64 DUP3 ADD MSTORE PUSH1 0x84 ADD PUSH2 0x31D JUMP JUMPDEST PUSH1 0x0 DUP2 GT PUSH2 0xCA8 JUMPI PUSH1 0x40 MLOAD PUSH3 0x461BCD PUSH1 0xE5 SHL DUP2 MSTORE PUSH1 0x20 PUSH1 0x4 DUP3 ADD MSTORE PUSH1 0x2F PUSH1 0x24 DUP3 ADD MSTORE PUSH32 0x5645473231526577617264733A20636F6D706C6574696F6E20626F6E7573206D PUSH1 0x44 DUP3 ADD MSTORE PUSH15 0x75737420626520706F736974697665 PUSH1 0x88 SHL PUSH1 0x64 DUP3 ADD MSTORE PUSH1 0x84 ADD PUSH2 0x31D JUMP JUMPDEST PUSH1 0x2 DUP3 SWAP1 SSTORE PUSH1 0x3 DUP2 SWAP1 SSTORE PUSH1 0x40 DUP1 MLOAD DUP4 DUP2 MSTORE PUSH1 0x20 DUP2 ADD DUP4 SWAP1 MSTORE PUSH32 0x8C3219F2638ED0DDEEBB022716FF77CC06A236F399256DAEC66491B774EE7F2 SWAP2 ADD PUSH1 0x40 MLOAD DUP1 SWAP2 SUB SWAP1 LOG1 POP POP JUMP JUMPDEST PUSH1 0x1 PUSH1 0x1 PUSH1 0xA0 SHL SUB DUP2 AND PUSH1 0x0 SWAP1 DUP2 MSTORE PUSH1 0x4 PUSH1 0x20 MSTORE PUSH1 0x40 DUP2 KECCAK256 PUSH1 0x3 DUP2 ADD SLOAD DUP3 SWAP2 DUP3 SWAP2 DUP3 SWAP2 DUP3 SWAP2 DUP3 SWAP1 PUSH1 0xFF AND ISZERO DUP1 ISZERO PUSH2 0xD2A JUMPI POP PUSH1 0x15 DUP3 PUSH1 0x2 ADD SLOAD LT JUMPDEST ISZERO PUSH2 0xD42 JUMPI PUSH1 0x2 DUP3 ADD SLOAD PUSH2 0xD3F SWAP1 PUSH1 0x15 PUSH2 0x1044 JUMP JUMPDEST SWAP1 POP JUMPDEST DUP2 SLOAD PUSH1 0x1 DUP4 ADD SLOAD PUSH1 0x2 DUP5 ADD SLOAD PUSH1 0x3 SWAP1 SWAP5 ADD SLOAD PUSH1 0xFF PUSH1 0x1 PUSH1 0xA0 SHL SWAP1 SWAP4 DIV DUP4 AND SWAP12 SWAP2 SWAP11 POP SWAP4 SWAP9 POP SWAP3 AND SWAP6 POP SWAP4 POP SWAP2 POP POP JUMP JUMPDEST PUSH2 0xD7A PUSH2 0xDD7 JUMP JUMPDEST PUSH1 0x1 PUSH1 0x1 PUSH1 0xA0 SHL SUB DUP2 AND PUSH2 0xDA4 JUMPI PUSH1 0x40 MLOAD PUSH4 0x1E4FBDF7 PUSH1 0xE0 SHL DUP2 MSTORE PUSH1 0x0 PUSH1 0x4 DUP3 ADD MSTORE PUSH1 0x24 ADD PUSH2 0x31D JUMP JUMPDEST PUSH2 0x75E DUP2 PUSH2 0xE04 JUMP JUMPDEST PUSH1 0x2 PUSH1 0x1 SLOAD SUB PUSH2 0xDD0 JUMPI PUSH1 0x40 MLOAD PUSH4 0x3EE5AEB5 PUSH1 0xE0 SHL DUP2 MSTORE PUSH1 0x4 ADD PUSH1 0x40 MLOAD DUP1 SWAP2 SUB SWAP1 REVERT JUMPDEST PUSH1 0x2 PUSH1 0x1 SSTORE JUMP JUMPDEST PUSH1 0x0 SLOAD PUSH1 0x1 PUSH1 0x1 PUSH1 0xA0 SHL SUB AND CALLER EQ PUSH2 0x773 JUMPI PUSH1 0x40 MLOAD PUSH4 0x118CDAA7 PUSH1 0xE0 SHL DUP2 MSTORE CALLER PUSH1 0x4 DUP3 ADD MSTORE PUSH1 0x24 ADD PUSH2 0x31D JUMP JUMPDEST PUSH1 0x0 DUP1 SLOAD PUSH1 0x1 PUSH1 0x1 PUSH1 0xA0 SHL SUB DUP4 DUP2 AND PUSH1 0x1 PUSH1 0x1 PUSH1 0xA0 SHL SUB NOT DUP4 AND DUP2 OR DUP5 SSTORE PUSH1 0x40 MLOAD SWAP2 SWAP1 SWAP3 AND SWAP3 DUP4 SWAP2 PUSH32 0x8BE0079C531659141344CD1FD0A4F28419497F9722A3DAAFE3B4186F6B6457E0 SWAP2 SWAP1 LOG3 POP POP JUMP JUMPDEST DUP1 CALLDATALOAD PUSH1 0x1 PUSH1 0x1 PUSH1 0xA0 SHL SUB DUP2 AND DUP2 EQ PUSH2 0xE6B JUMPI PUSH1 0x0 DUP1 REVERT JUMPDEST SWAP2 SWAP1 POP JUMP JUMPDEST PUSH1 0x0 PUSH1 0x20 DUP3 DUP5 SUB SLT ISZERO PUSH2 0xE82 JUMPI PUSH1 0x0 DUP1 REVERT JUMPDEST PUSH2 0xE8B DUP3 PUSH2 0xE54 JUMP JUMPDEST SWAP4 SWAP3 POP POP POP JUMP JUMPDEST PUSH4 0x4E487B71 PUSH1 0xE0 SHL PUSH1 0x0 MSTORE PUSH1 0x21 PUSH1 0x4 MSTORE PUSH1 0x24 PUSH1 0x0 REVERT JUMPDEST PUSH1 0x4 DUP2 LT PUSH2 0xEC6 JUMPI PUSH4 0x4E487B71 PUSH1 0xE0 SHL PUSH1 0x0 MSTORE PUSH1 0x21 PUSH1 0x4 MSTORE PUSH1 0x24 PUSH1 0x0 REVERT JUMPDEST SWAP1 MSTORE JUMP JUMPDEST PUSH1 0x1 PUSH1 0x1 PUSH1 0xA0 SHL SUB DUP8 AND DUP2 MSTORE PUSH1 0xC0 DUP2 ADD PUSH2 0xEE7 PUSH1 0x20 DUP4 ADD DUP9 PUSH2 0xEA8 JUMP JUMPDEST PUSH1 0x40 DUP3 ADD SWAP6 SWAP1 SWAP6 MSTORE PUSH1 0x60 DUP2 ADD SWAP4 SWAP1 SWAP4 MSTORE SWAP1 ISZERO ISZERO PUSH1 0x80 DUP4 ADD MSTORE ISZERO ISZERO PUSH1 0xA0 SWAP1 SWAP2 ADD MSTORE SWAP3 SWAP2 POP POP JUMP JUMPDEST PUSH1 0x0 DUP1 PUSH1 0x40 DUP4 DUP6 SUB SLT ISZERO PUSH2 0xF20 JUMPI PUSH1 0x0 DUP1 REVERT JUMPDEST PUSH2 0xF29 DUP4 PUSH2 0xE54 JUMP JUMPDEST SWAP2 POP PUSH1 0x20 DUP4 ADD CALLDATALOAD PUSH1 0x4 DUP2 LT PUSH2 0xF3D JUMPI PUSH1 0x0 DUP1 REVERT JUMPDEST DUP1 SWAP2 POP POP SWAP3 POP SWAP3 SWAP1 POP JUMP JUMPDEST PUSH1 0x0 DUP1 PUSH1 0x40 DUP4 DUP6 SUB SLT ISZERO PUSH2 0xF5B JUMPI PUSH1 0x0 DUP1 REVERT JUMPDEST POP POP DUP1 CALLDATALOAD SWAP3 PUSH1 0x20 SWAP1 SWAP2 ADD CALLDATALOAD SWAP2 POP JUMP JUMPDEST PUSH1 0xA0 DUP2 ADD PUSH2 0xF78 DUP3 DUP9 PUSH2 0xEA8 JUMP JUMPDEST PUSH1 0x20 DUP3 ADD SWAP6 SWAP1 SWAP6 MSTORE PUSH1 0x40 DUP2 ADD SWAP4 SWAP1 SWAP4 MSTORE SWAP1 ISZERO ISZERO PUSH1 0x60 DUP4 ADD MSTORE PUSH1 0x80 SWAP1 SWAP2 ADD MSTORE SWAP2 SWAP1 POP JUMP JUMPDEST PUSH1 0x20 DUP1 DUP3 MSTORE PUSH1 0x26 SWAP1 DUP3 ADD MSTORE PUSH32 0x5645473231526577617264733A2063616C6C6572206973206E6F742061207665 PUSH1 0x40 DUP3 ADD MSTORE PUSH6 0x3934B334B2B9 PUSH1 0xD1 SHL PUSH1 0x60 DUP3 ADD MSTORE PUSH1 0x80 ADD SWAP1 JUMP JUMPDEST PUSH4 0x4E487B71 PUSH1 0xE0 SHL PUSH1 0x0 MSTORE PUSH1 0x11 PUSH1 0x4 MSTORE PUSH1 0x24 PUSH1 0x0 REVERT JUMPDEST PUSH1 0x0 PUSH1 0x1 DUP3 ADD PUSH2 0x1009 JUMPI PUSH2 0x1009 PUSH2 0xFE1 JUMP JUMPDEST POP PUSH1 0x1 ADD SWAP1 JUMP JUMPDEST DUP1 DUP3 ADD DUP1 DUP3 GT ISZERO PUSH2 0x1023 JUMPI PUSH2 0x1023 PUSH2 0xFE1 JUMP JUMPDEST SWAP3 SWAP2 POP POP JUMP JUMPDEST PUSH1 0x40 DUP2 ADD PUSH2 0x1037 DUP3 DUP6 PUSH2 0xEA8 JUMP JUMPDEST DUP3 PUSH1 0x20 DUP4 ADD MSTORE SWAP4 SWAP3 POP POP POP JUMP JUMPDEST DUP2 DUP2 SUB DUP2 DUP2 GT ISZERO PUSH2 0x1023 JUMPI PUSH2 0x1023 PUSH2 0xFE1 JUMP INVALID LOG2 PUSH5 0x6970667358 0x22 SLT KECCAK256 GASLIMIT MUL MSTORE8 0xB6 0x23 SWAP13 0xEB PUSH9 0x5AE55EFDBFFB4E4DBE 0x28 0x1E 0xBF MSTORE PUSH13 0x2FB439D63FFFC4E050D464736F PUSH13 0x63430008140033000000000000 "},"methodIdentifiers":{"addVerifier(address)":"9000b3d6","challengeCompletionBonus()":"64b4854e","dailyCheckInReward()":"0718b441","getChallengeProgress(address)":"f235e40a","isVerifier(address)":"33105218","owner()":"8da5cb5b","recordCheckIn(address)":"115e94e5","removeVerifier(address)":"ca2dfd0a","renounceOwnership()":"715018a6","setRewardAmounts(uint256,uint256)":"d113ef7c","startChallenge(address,uint8)":"9d77cefc","totalChallengesCompleted()":"20dedd07","totalRewardsDistributed()":"ee172546","totalRewardsEarned(address)":"e4f24cb0","transferOwnership(address)":"f2fde38b","userChallenges(address)":"34a0de37","veg21Token()":"cfd4b1e2"}}}}}