{
  "_format": "hh-sol-artifact-1",
  "contractName": "VEG21Donations",
  "sourceName": "contracts/VEG21Donations.sol",
  "abi": [
    {
      "inputs": [
        {
          "internalType": "address",
          "name": "_veg21Token",
          "type": "address"
        },
        {
          "internalType": "address",
          "name": "initialOwner",
          "type": "address"
        }
      ],
      "stateMutability": "nonpayable",
      "type": "constructor"
    },
    {
      "inputs": [
        {
          "internalType": "address",
          "name": "owner",
          "type": "address"
        }
      ],
      "name": "OwnableInvalidOwner",
      "type": "error"
    },
    {
      "inputs": [
        {
          "internalType": "address",
          "name": "account",
          "type": "address"
        }
      ],
      "name": "OwnableUnauthorizedAccount",
      "type": "error"
    },
    {
      "inputs": [],
      "name": "ReentrancyGuardReentrantCall",
      "type": "error"
    },
    {
      "anonymous": false,
      "inputs": [
        {
          "indexed": true,
          "internalType": "uint256",
          "name": "charityId",
          "type": "uint256"
        }
      ],
      "name": "CharityDeactivated",
      "type": "event"
    },
    {
      "anonymous": false,
      "inputs": [
        {
          "indexed": true,
          "internalType": "uint256",
          "name": "charityId",
          "type": "uint256"
        },
        {
          "indexed": false,
          "internalType": "string",
          "name": "name",
          "type": "string"
        },
        {
          "indexed": false,
          "internalType": "address",
          "name": "wallet",
          "type": "address"
        }
      ],
      "name": "CharityRegistered",
      "type": "event"
    },
    {
      "anonymous": false,
      "inputs": [
        {
          "indexed": true,
          "internalType": "address",
          "name": "donor",
          "type": "address"
        },
        {
          "indexed": true,
          "internalType": "uint256",
          "name": "charityId",
          "type": "uint256"
        },
        {
          "indexed": false,
          "internalType": "uint256",
          "name": "amount",
          "type": "uint256"
        },
        {
          "indexed": false,
          "internalType": "uint256",
          "name": "timestamp",
          "type": "uint256"
        }
      ],
      "name": "DonationMade",
      "type": "event"
    },
    {
      "anonymous": false,
      "inputs": [
        {
          "indexed": true,
          "internalType": "address",
          "name": "previousOwner",
          "type": "address"
        },
        {
          "indexed": true,
          "internalType": "address",
          "name": "newOwner",
          "type": "address"
        }
      ],
      "name": "OwnershipTransferred",
      "type": "event"
    },
    {
      "inputs": [
        {
          "internalType": "uint256",
          "name": "",
          "type": "uint256"
        }
      ],
      "name": "charities",
      "outputs": [
        {
          "internalType": "string",
          "name": "name",
          "type": "string"
        },
        {
          "internalType": "string",
          "name": "description",
          "type": "string"
        },
        {
          "internalType": "address",
          "name": "wallet",
          "type": "address"
        },
        {
          "internalType": "bool",
          "name": "isActive",
          "type": "bool"
        },
        {
          "internalType": "uint256",
          "name": "totalDonations",
          "type": "uint256"
        }
      ],
      "stateMutability": "view",
      "type": "function"
    },
    {
      "inputs": [],
      "name": "charityCount",
      "outputs": [
        {
          "internalType": "uint256",
          "name": "",
          "type": "uint256"
        }
      ],
      "stateMutability": "view",
      "type": "function"
    },
    {
      "inputs": [
        {
          "internalType": "uint256",
          "name": "charityId",
          "type": "uint256"
        }
      ],
      "name": "deactivateCharity",
      "outputs": [],
      "stateMutability": "nonpayable",
      "type": "function"
    },
    {
      "inputs": [
        {
          "internalType": "uint256",
          "name": "charityId",
          "type": "uint256"
        },
        {
          "internalType": "uint256",
          "name": "amount",
          "type": "uint256"
        }
      ],
      "name": "donate",
      "outputs": [],
      "stateMutability": "nonpayable",
      "type": "function"
    },
    {
      "inputs": [],
      "name": "getActiveCharities",
      "outputs": [
        {
          "internalType": "uint256[]",
          "name": "",
          "type": "uint256[]"
        }
      ],
      "stateMutability": "view",
      "type": "function"
    },
    {
      "inputs": [
        {
          "internalType": "uint256",
          "name": "charityId",
          "type": "uint256"
        }
      ],
      "name": "getCharity",
      "outputs": [
        {
          "internalType": "string",
          "name": "name",
          "type": "string"
        },
        {
          "internalType": "string",
          "name": "description",
          "type": "string"
        },
        {
          "internalType": "address",
          "name": "wallet",
          "type": "address"
        },
        {
          "internalType": "bool",
          "name": "isActive",
          "type": "bool"
        },
        {
          "internalType": "uint256",
          "name": "totalDonations",
          "type": "uint256"
        }
      ],
      "stateMutability": "view",
      "type": "function"
    },
    {
      "inputs": [
        {
          "internalType": "address",
          "name": "user",
          "type": "address"
        },
        {
          "internalType": "uint256",
          "name": "charityId",
          "type": "uint256"
        }
      ],
      "name": "getUserDonationToCharity",
      "outputs": [
        {
          "internalType": "uint256",
          "name": "",
          "type": "uint256"
        }
      ],
      "stateMutability": "view",
      "type": "function"
    },
    {
      "inputs": [],
      "name": "owner",
      "outputs": [
        {
          "internalType": "address",
          "name": "",
          "type": "address"
        }
      ],
      "stateMutability": "view",
      "type": "function"
    },
    {
      "inputs": [
        {
          "internalType": "string",
          "name": "name",
          "type": "string"
        },
        {
          "internalType": "string",
          "name": "description",
          "type": "string"
        },
        {
          "internalType": "address",
          "name": "wallet",
          "type": "address"
        }
      ],
      "name": "registerCharity",
      "outputs": [],
      "stateMutability": "nonpayable",
      "type": "function"
    },
    {
      "inputs": [],
      "name": "renounceOwnership",
      "outputs": [],
      "stateMutability": "nonpayable",
      "type": "function"
    },
    {
      "inputs": [],
      "name": "totalDonationsAllTime",
      "outputs": [
        {
          "internalType": "uint256",
          "name": "",
          "type": "uint256"
        }
      ],
      "stateMutability": "view",
      "type": "function"
    },
    {
      "inputs": [
        {
          "internalType": "address",
          "name": "",
          "type": "address"
        }
      ],
      "name": "totalUserDonations",
      "outputs": [
        {
          "internalType": "uint256",
          "name": "",
          "type": "uint256"
        }
      ],
      "stateMutability": "view",
      "type": "function"
    },
    {
      "inputs": [
        {
          "internalType": "address",
          "name": "newOwner",
          "type": "address"
        }
      ],
      "name": "transferOwnership",
      "outputs": [],
      "stateMutability": "nonpayable",
      "type": "function"
    },
    {
      "inputs": [
        {
          "internalType": "address",
          "name": "",
          "type": "address"
        },
        {
          "internalType": "uint256",
          "name": "",
          "type": "uint256"
        }
      ],
      "name": "userDonations",
      "outputs": [
        {
          "internalType": "uint256",
          "name": "",
          "type": "uint256"
        }
      ],
      "stateMutability": "view",
      "type": "function"
    },
    {
      "inputs": [],
      "name": "veg21Token",
      "outputs": [
        {
          "internalType": "contract VEG21Token",
          "name": "",
          "type": "address"
        }
      ],
      "stateMutability": "view",
      "type": "function"
    }
  ],
  "bytecode": "0x60a06040523480156200001157600080fd5b506040516200146738038062001467833981016040819052620000349162000162565b806001600160a01b0381166200006557604051631e4fbdf760e01b8152600060048201526024015b60405180910390fd5b6200007081620000f5565b50600180556001600160a01b038216620000e25760405162461bcd60e51b815260206004820152602c60248201527f5645473231446f6e6174696f6e733a20746f6b656e206164647265737320636160448201526b6e6e6f74206265207a65726f60a01b60648201526084016200005c565b506001600160a01b03166080526200019a565b600080546001600160a01b038381166001600160a01b0319831681178455604051919092169283917f8be0079c531659141344cd1fd0a4f28419497f9722a3daafe3b4186f6b6457e09190a35050565b80516001600160a01b03811681146200015d57600080fd5b919050565b600080604083850312156200017657600080fd5b620001818362000145565b9150620001916020840162000145565b90509250929050565b6080516112a3620001c4600039600081816101ec015281816103c601526104ca01526112a36000f3fe608060405234801561001057600080fd5b50600436106100f55760003560e01c80638da5cb5b11610097578063d2e0929211610066578063d2e092921461020e578063f2fde38b14610221578063fb709d2e14610234578063fd67db811461025857600080fd5b80638da5cb5b1461019957806391329493146101be578063bfd1de32146101c7578063cfd4b1e2146101e757600080fd5b80632da8d725116100d35780632da8d7251461014a5780634933e6311461015d578063715018a6146101885780638bd7afd11461019057600080fd5b806309eca369146100fa5780630cdd53f614610120578063258e11e214610135575b600080fd5b61010d610108366004610dca565b61026b565b6040519081526020015b60405180910390f35b61013361012e366004610df4565b610296565b005b61013d61060b565b6040516101179190610e16565b610133610158366004610e5a565b61071b565b61010d61016b366004610dca565b600360209081526000928352604080842090915290825290205481565b610133610805565b61010d60065481565b6000546001600160a01b03165b6040516001600160a01b039091168152602001610117565b61010d60055481565b61010d6101d5366004610e73565b60046020526000908152604090205481565b6101a67f000000000000000000000000000000000000000000000000000000000000000081565b61013361021c366004610f38565b610819565b61013361022f366004610e73565b6109ed565b610247610242366004610e5a565b610a2b565b604051610117959493929190610ff2565b610247610266366004610e5a565b610b79565b6001600160a01b03821660009081526003602090815260408083208484529091529020545b92915050565b61029e610d07565b6000811161030c5760405162461bcd60e51b815260206004820152603060248201527f5645473231446f6e6174696f6e733a20646f6e6174696f6e20616d6f756e742060448201526f6d75737420626520706f73697469766560801b60648201526084015b60405180910390fd5b600554821061032d5760405162461bcd60e51b81526004016103039061103e565b60008281526002602081905260409091200154600160a01b900460ff166103a45760405162461bcd60e51b815260206004820152602560248201527f5645473231446f6e6174696f6e733a2063686172697479206973206e6f742061604482015264637469766560d81b6064820152608401610303565b6040516323b872dd60e01b8152336004820152306024820152604481018290527f00000000000000000000000000000000000000000000000000000000000000006001600160a01b0316906323b872dd906064016020604051808303816000875af1158015610417573d6000803e3d6000fd5b505050506040513d601f19601f8201168201806040525081019061043b9190611080565b6104875760405162461bcd60e51b815260206004820152601f60248201527f5645473231446f6e6174696f6e733a207472616e73666572206661696c6564006044820152606401610303565b604051634bca186960e11b81523060048201526024810182905260606044820152601060648201526f31b430b934ba3cafb237b730ba34b7b760811b60848201527f00000000000000000000000000000000000000000000000000000000000000006001600160a01b03169063979430d29060a401600060405180830381600087803b15801561051657600080fd5b505af115801561052a573d6000803e3d6000fd5b505050600083815260026020526040812060030180548493509091906105519084906110b8565b9091555050336000908152600360209081526040808320858452909152812080548392906105809084906110b8565b909155505033600090815260046020526040812080548392906105a49084906110b8565b9250508190555080600660008282546105bd91906110b8565b909155505060408051828152426020820152839133917fd7570171f3eec5b5e70a829a2f7b1a40853d0159967de2efe2bf99208b9a560d910160405180910390a361060760018055565b5050565b60606000805b60055481101561065d5760008181526002602081905260409091200154600160a01b900460ff161561064b5781610647816110cb565b9250505b80610655816110cb565b915050610611565b5060008167ffffffffffffffff81111561067957610679610e95565b6040519080825280602002602001820160405280156106a2578160200160208202803683370190505b5090506000805b6005548110156107125760008181526002602081905260409091200154600160a01b900460ff1615610700578083836106e1816110cb565b9450815181106106f3576106f36110e4565b6020026020010181815250505b8061070a816110cb565b9150506106a9565b50909392505050565b610723610d31565b60055481106107445760405162461bcd60e51b81526004016103039061103e565b60008181526002602081905260409091200154600160a01b900460ff166107be5760405162461bcd60e51b815260206004820152602860248201527f5645473231446f6e6174696f6e733a206368617269747920616c726561647920604482015267696e61637469766560c01b6064820152608401610303565b6000818152600260208190526040808320909101805460ff60a01b191690555182917e1484f1b3f8f9f90c03419179a25c2957380ddf2b3b6e408ecfc6c2f7eb93d191a250565b61080d610d31565b6108176000610d5e565b565b610821610d31565b600083511161087e5760405162461bcd60e51b8152602060048201526024808201527f5645473231446f6e6174696f6e733a206e616d652063616e6e6f7420626520656044820152636d70747960e01b6064820152608401610303565b6001600160a01b0381166108ea5760405162461bcd60e51b815260206004820152602d60248201527f5645473231446f6e6174696f6e733a2077616c6c65742063616e6e6f7420626560448201526c207a65726f206164647265737360981b6064820152608401610303565b60058054600091826108fb836110cb565b909155506040805160a08101825286815260208082018790526001600160a01b03861682840152600160608301526000608083018190528481526002909152919091208151929350909181906109519082611183565b50602082015160018201906109669082611183565b5060408281015160028301805460608601511515600160a01b026001600160a81b03199091166001600160a01b03909316929092179190911790556080909201516003909101555181907f831d50f40a68f5843a40a5620170db9570bab46ccd475da79bca837b2ff99945906109df9087908690611243565b60405180910390a250505050565b6109f5610d31565b6001600160a01b038116610a1f57604051631e4fbdf760e01b815260006004820152602401610303565b610a2881610d5e565b50565b600260205260009081526040902080548190610a46906110fa565b80601f0160208091040260200160405190810160405280929190818152602001828054610a72906110fa565b8015610abf5780601f10610a9457610100808354040283529160200191610abf565b820191906000526020600020905b815481529060010190602001808311610aa257829003601f168201915b505050505090806001018054610ad4906110fa565b80601f0160208091040260200160405190810160405280929190818152602001828054610b00906110fa565b8015610b4d5780601f10610b2257610100808354040283529160200191610b4d565b820191906000526020600020905b815481529060010190602001808311610b3057829003601f168201915b50505050600283015460039093015491926001600160a01b03811692600160a01b90910460ff16915085565b60608060008060006005548610610ba25760405162461bcd60e51b81526004016103039061103e565b60008681526002602081905260409091209081015460038201548254839260018401926001600160a01b03821692600160a01b90920460ff16918590610be7906110fa565b80601f0160208091040260200160405190810160405280929190818152602001828054610c13906110fa565b8015610c605780601f10610c3557610100808354040283529160200191610c60565b820191906000526020600020905b815481529060010190602001808311610c4357829003601f168201915b50505050509450838054610c73906110fa565b80601f0160208091040260200160405190810160405280929190818152602001828054610c9f906110fa565b8015610cec5780601f10610cc157610100808354040283529160200191610cec565b820191906000526020600020905b815481529060010190602001808311610ccf57829003601f168201915b50505050509350955095509550955095505091939590929450565b600260015403610d2a57604051633ee5aeb560e01b815260040160405180910390fd5b6002600155565b6000546001600160a01b031633146108175760405163118cdaa760e01b8152336004820152602401610303565b600080546001600160a01b038381166001600160a01b0319831681178455604051919092169283917f8be0079c531659141344cd1fd0a4f28419497f9722a3daafe3b4186f6b6457e09190a35050565b80356001600160a01b0381168114610dc557600080fd5b919050565b60008060408385031215610ddd57600080fd5b610de683610dae565b946020939093013593505050565b60008060408385031215610e0757600080fd5b50508035926020909101359150565b6020808252825182820181905260009190848201906040850190845b81811015610e4e57835183529284019291840191600101610e32565b50909695505050505050565b600060208284031215610e6c57600080fd5b5035919050565b600060208284031215610e8557600080fd5b610e8e82610dae565b9392505050565b634e487b7160e01b600052604160045260246000fd5b600082601f830112610ebc57600080fd5b813567ffffffffffffffff80821115610ed757610ed7610e95565b604051601f8301601f19908116603f01168101908282118183101715610eff57610eff610e95565b81604052838152866020858801011115610f1857600080fd5b836020870160208301376000602085830101528094505050505092915050565b600080600060608486031215610f4d57600080fd5b833567ffffffffffffffff80821115610f6557600080fd5b610f7187838801610eab565b94506020860135915080821115610f8757600080fd5b50610f9486828701610eab565b925050610fa360408501610dae565b90509250925092565b6000815180845260005b81811015610fd257602081850181015186830182015201610fb6565b506000602082860101526020601f19601f83011685010191505092915050565b60a08152600061100560a0830188610fac565b82810360208401526110178188610fac565b6001600160a01b039690961660408401525050911515606083015260809091015292915050565b60208082526022908201527f5645473231446f6e6174696f6e733a20696e76616c6964206368617269747920604082015261125160f21b606082015260800190565b60006020828403121561109257600080fd5b81518015158114610e8e57600080fd5b634e487b7160e01b600052601160045260246000fd5b80820180821115610290576102906110a2565b6000600182016110dd576110dd6110a2565b5060010190565b634e487b7160e01b600052603260045260246000fd5b600181811c9082168061110e57607f821691505b60208210810361112e57634e487b7160e01b600052602260045260246000fd5b50919050565b601f82111561117e57600081815260208120601f850160051c8101602086101561115b5750805b601f850160051c820191505b8181101561117a57828155600101611167565b5050505b505050565b815167ffffffffffffffff81111561119d5761119d610e95565b6111b1816111ab84546110fa565b84611134565b602080601f8311600181146111e657600084156111ce5750858301515b600019600386901b1c1916600185901b17855561117a565b600085815260208120601f198616915b82811015611215578886015182559484019460019091019084016111f6565b50858210156112335787850151600019600388901b60f8161c191681555b5050505050600190811b01905550565b6040815260006112566040830185610fac565b905060018060a01b0383166020830152939250505056fea264697066735822122010cc986a082fd231a5fffcea1501dae558cc5c82fc4e6de4f53c3d7b13559fda64736f6c63430008140033",
  "linkReferences": {},
  "deployedLinkReferences": {}
}