{
  "_format": "hh-sol-artifact-1",
  "contractName": "VEG21Rewards",
  "sourceName": "contracts/VEG21Rewards.sol",
  "abi": [
    {
      "inputs": [
        {
          "internalType": "address",
          "name": "_veg21Token",
          "type": "address"
        },
        {
          "internalType": "address",
          "name": "initialOwner",
          "type": "address"
        }
      ],
      "stateMutability": "nonpayable",
      "type": "constructor"
    },
    {
      "inputs": [
        {
          "internalType": "address",
          "name": "owner",
          "type": "address"
        }
      ],
      "name": "OwnableInvalidOwner",
      "type": "error"
    },
    {
      "inputs": [
        {
          "internalType": "address",
          "name": "account",
          "type": "address"
        }
      ],
      "name": "OwnableUnauthorizedAccount",
      "type": "error"
    },
    {
      "inputs": [],
      "name": "ReentrancyGuardReentrantCall",
      "type": "error"
    },
    {
      "anonymous": false,
      "inputs": [
        {
          "indexed": true,
          "internalType": "address",
          "name": "user",
          "type": "address"
        },
        {
          "indexed": false,
          "internalType": "uint256",
          "name": "completionBonus",
          "type": "uint256"
        }
      ],
      "name": "ChallengeCompleted",
      "type": "event"
    },
    {
      "anonymous": false,
      "inputs": [
        {
          "indexed": true,
          "internalType": "address",
          "name": "user",
          "type": "address"
        },
        {
          "indexed": false,
          "internalType": "enum VEG21Rewards.ChallengeType",
          "name": "challengeType",
          "type": "uint8"
        },
        {
          "indexed": false,
          "internalType": "uint256",
          "name": "startDate",
          "type": "uint256"
        }
      ],
      "name": "ChallengeStarted",
      "type": "event"
    },
    {
      "anonymous": false,
      "inputs": [
        {
          "indexed": true,
          "internalType": "address",
          "name": "user",
          "type": "address"
        },
        {
          "indexed": false,
          "internalType": "uint256",
          "name": "day",
          "type": "uint256"
        },
        {
          "indexed": false,
          "internalType": "uint256",
          "name": "reward",
          "type": "uint256"
        }
      ],
      "name": "CheckInRewarded",
      "type": "event"
    },
    {
      "anonymous": false,
      "inputs": [
        {
          "indexed": true,
          "internalType": "address",
          "name": "previousOwner",
          "type": "address"
        },
        {
          "indexed": true,
          "internalType": "address",
          "name": "newOwner",
          "type": "address"
        }
      ],
      "name": "OwnershipTransferred",
      "type": "event"
    },
    {
      "anonymous": false,
      "inputs": [
        {
          "indexed": false,
          "internalType": "uint256",
          "name": "dailyReward",
          "type": "uint256"
        },
        {
          "indexed": false,
          "internalType": "uint256",
          "name": "completionBonus",
          "type": "uint256"
        }
      ],
      "name": "RewardAmountsUpdated",
      "type": "event"
    },
    {
      "anonymous": false,
      "inputs": [
        {
          "indexed": true,
          "internalType": "address",
          "name": "verifier",
          "type": "address"
        }
      ],
      "name": "VerifierAdded",
      "type": "event"
    },
    {
      "anonymous": false,
      "inputs": [
        {
          "indexed": true,
          "internalType": "address",
          "name": "verifier",
          "type": "address"
        }
      ],
      "name": "VerifierRemoved",
      "type": "event"
    },
    {
      "inputs": [
        {
          "internalType": "address",
          "name": "verifier",
          "type": "address"
        }
      ],
      "name": "addVerifier",
      "outputs": [],
      "stateMutability": "nonpayable",
      "type": "function"
    },
    {
      "inputs": [],
      "name": "challengeCompletionBonus",
      "outputs": [
        {
          "internalType": "uint256",
          "name": "",
          "type": "uint256"
        }
      ],
      "stateMutability": "view",
      "type": "function"
    },
    {
      "inputs": [],
      "name": "dailyCheckInReward",
      "outputs": [
        {
          "internalType": "uint256",
          "name": "",
          "type": "uint256"
        }
      ],
      "stateMutability": "view",
      "type": "function"
    },
    {
      "inputs": [
        {
          "internalType": "address",
          "name": "user",
          "type": "address"
        }
      ],
      "name": "getChallengeProgress",
      "outputs": [
        {
          "internalType": "enum VEG21Rewards.ChallengeType",
          "name": "challengeType",
          "type": "uint8"
        },
        {
          "internalType": "uint256",
          "name": "startDate",
          "type": "uint256"
        },
        {
          "internalType": "uint256",
          "name": "checkInsCompleted",
          "type": "uint256"
        },
        {
          "internalType": "bool",
          "name": "isComplete",
          "type": "bool"
        },
        {
          "internalType": "uint256",
          "name": "daysRemaining",
          "type": "uint256"
        }
      ],
      "stateMutability": "view",
      "type": "function"
    },
    {
      "inputs": [
        {
          "internalType": "address",
          "name": "",
          "type": "address"
        }
      ],
      "name": "isVerifier",
      "outputs": [
        {
          "internalType": "bool",
          "name": "",
          "type": "bool"
        }
      ],
      "stateMutability": "view",
      "type": "function"
    },
    {
      "inputs": [],
      "name": "owner",
      "outputs": [
        {
          "internalType": "address",
          "name": "",
          "type": "address"
        }
      ],
      "stateMutability": "view",
      "type": "function"
    },
    {
      "inputs": [
        {
          "internalType": "address",
          "name": "user",
          "type": "address"
        }
      ],
      "name": "recordCheckIn",
      "outputs": [],
      "stateMutability": "nonpayable",
      "type": "function"
    },
    {
      "inputs": [
        {
          "internalType": "address",
          "name": "verifier",
          "type": "address"
        }
      ],
      "name": "removeVerifier",
      "outputs": [],
      "stateMutability": "nonpayable",
      "type": "function"
    },
    {
      "inputs": [],
      "name": "renounceOwnership",
      "outputs": [],
      "stateMutability": "nonpayable",
      "type": "function"
    },
    {
      "inputs": [
        {
          "internalType": "uint256",
          "name": "newDailyReward",
          "type": "uint256"
        },
        {
          "internalType": "uint256",
          "name": "newCompletionBonus",
          "type": "uint256"
        }
      ],
      "name": "setRewardAmounts",
      "outputs": [],
      "stateMutability": "nonpayable",
      "type": "function"
    },
    {
      "inputs": [
        {
          "internalType": "address",
          "name": "user",
          "type": "address"
        },
        {
          "internalType": "enum VEG21Rewards.ChallengeType",
          "name": "challengeType",
          "type": "uint8"
        }
      ],
      "name": "startChallenge",
      "outputs": [],
      "stateMutability": "nonpayable",
      "type": "function"
    },
    {
      "inputs": [],
      "name": "totalChallengesCompleted",
      "outputs": [
        {
          "internalType": "uint256",
          "name": "",
          "type": "uint256"
        }
      ],
      "stateMutability": "view",
      "type": "function"
    },
    {
      "inputs": [],
      "name": "totalRewardsDistributed",
      "outputs": [
        {
          "internalType": "uint256",
          "name": "",
          "type": "uint256"
        }
      ],
      "stateMutability": "view",
      "type": "function"
    },
    {
      "inputs": [
        {
          "internalType": "address",
          "name": "",
          "type": "address"
        }
      ],
      "name": "totalRewardsEarned",
      "outputs": [
        {
          "internalType": "uint256",
          "name": "",
          "type": "uint256"
        }
      ],
      "stateMutability": "view",
      "type": "function"
    },
    {
      "inputs": [
        {
          "internalType": "address",
          "name": "newOwner",
          "type": "address"
        }
      ],
      "name": "transferOwnership",
      "outputs": [],
      "stateMutability": "nonpayable",
      "type": "function"
    },
    {
      "inputs": [
        {
          "internalType": "address",
          "name": "",
          "type": "address"
        }
      ],
      "name": "userChallenges",
      "outputs": [
        {
          "internalType": "address",
          "name": "user",
          "type": "address"
        },
        {
          "internalType": "enum VEG21Rewards.ChallengeType",
          "name": "challengeType",
          "type": "uint8"
        },
        {
          "internalType": "uint256",
          "name": "startDate",
          "type": "uint256"
        },
        {
          "internalType": "uint256",
          "name": "checkInsCompleted",
          "type": "uint256"
        },
        {
          "internalType": "bool",
          "name": "isComplete",
          "type": "bool"
        },
        {
          "internalType": "bool",
          "name": "bonusClaimed",
          "type": "bool"
        }
      ],
      "stateMutability": "view",
      "type": "function"
    },
    {
      "inputs": [],
      "name": "veg21Token",
      "outputs": [
        {
          "internalType": "contract VEG21Token",
          "name": "",
          "type": "address"
        }
      ],
      "stateMutability": "view",
      "type": "function"
    }
  ],
  "bytecode": "0x60a0604052674563918244f400006002556802b5e3af16b18800006003553480156200002a57600080fd5b5060405162001283380380620012838339810160408190526200004d9162000194565b806001600160a01b0381166200007e57604051631e4fbdf760e01b8152600060048201526024015b60405180910390fd5b620000898162000127565b50600180556001600160a01b038216620000f95760405162461bcd60e51b815260206004820152602a60248201527f5645473231526577617264733a20746f6b656e20616464726573732063616e6e6044820152696f74206265207a65726f60b01b606482015260840162000075565b6001600160a01b03918216608052166000908152600660205260409020805460ff19166001179055620001cc565b600080546001600160a01b038381166001600160a01b0319831681178455604051919092169283917f8be0079c531659141344cd1fd0a4f28419497f9722a3daafe3b4186f6b6457e09190a35050565b80516001600160a01b03811681146200018f57600080fd5b919050565b60008060408385031215620001a857600080fd5b620001b38362000177565b9150620001c36020840162000177565b90509250929050565b60805161108d620001f660003960008181610259015281816104d5015261064f015261108d6000f3fe608060405234801561001057600080fd5b506004361061010b5760003560e01c80639000b3d6116100a2578063d113ef7c11610071578063d113ef7c1461027b578063e4f24cb01461028e578063ee172546146102ae578063f235e40a146102b7578063f2fde38b146102db57600080fd5b80639000b3d61461021b5780639d77cefc1461022e578063ca2dfd0a14610241578063cfd4b1e21461025457600080fd5b806334a0de37116100de57806334a0de371461017d57806364b4854e146101e5578063715018a6146101ee5780638da5cb5b146101f657600080fd5b80630718b44114610110578063115e94e51461012c57806320dedd0714610141578063331052181461014a575b600080fd5b61011960025481565b6040519081526020015b60405180910390f35b61013f61013a366004610e70565b6102ee565b005b61011960075481565b61016d610158366004610e70565b60066020526000908152604090205460ff1681565b6040519015158152602001610123565b6101d361018b366004610e70565b60046020526000908152604090208054600182015460028301546003909301546001600160a01b0383169360ff600160a01b9094048416939091808216916101009091041686565b60405161012396959493929190610eca565b61011960035481565b61013f610761565b6000546001600160a01b03165b6040516001600160a01b039091168152602001610123565b61013f610229366004610e70565b610775565b61013f61023c366004610f0d565b61089e565b61013f61024f366004610e70565b610b1b565b6102037f000000000000000000000000000000000000000000000000000000000000000081565b61013f610289366004610f48565b610bd4565b61011961029c366004610e70565b60056020526000908152604090205481565b61011960085481565b6102ca6102c5366004610e70565b610cef565b604051610123959493929190610f6a565b61013f6102e9366004610e70565b610d72565b3360009081526006602052604090205460ff166103265760405162461bcd60e51b815260040161031d90610f9b565b60405180910390fd5b61032e610dad565b6001600160a01b038116600090815260046020526040902060018101546103a15760405162461bcd60e51b815260206004820152602160248201527f5645473231526577617264733a206e6f20616374697665206368616c6c656e676044820152606560f81b606482015260840161031d565b600381015460ff16156104075760405162461bcd60e51b815260206004820152602860248201527f5645473231526577617264733a206368616c6c656e676520616c726561647920604482015267636f6d706c65746560c01b606482015260840161031d565b601581600201541061046b5760405162461bcd60e51b815260206004820152602760248201527f5645473231526577617264733a206d6178696d756d20636865636b2d696e73206044820152661c995858da195960ca1b606482015260840161031d565b60028101805490600061047d83610ff7565b909155505060028181015490546040516334ff261960e21b81526001600160a01b038581166004830152602482019290925260606044820152600d60648201526c3230b4b63cafb1b432b1b5b4b760991b60848201527f00000000000000000000000000000000000000000000000000000000000000009091169063d3fc98649060a401600060405180830381600087803b15801561051b57600080fd5b505af115801561052f573d6000803e3d6000fd5b50506002546001600160a01b0386166000908152600560205260408120805492945092509061055f908490611010565b909155505060025460088054600090610579908490611010565b90915550506002546040516001600160a01b038516917f608e1b6aba01b4ac73be1cac922dcffea9ca33d18174cc1fb26290a5e39907aa916105c391858252602082015260400190565b60405180910390a28060151480156105e557506003820154610100900460ff16155b15610753576003828101805461ffff1916610101179055546040516334ff261960e21b81526001600160a01b038581166004830152602482019290925260606044820152601460648201527331b430b63632b733b2afb1b7b6b83632ba34b7b760611b60848201527f00000000000000000000000000000000000000000000000000000000000000009091169063d3fc98649060a401600060405180830381600087803b15801561069557600080fd5b505af11580156106a9573d6000803e3d6000fd5b50506003546001600160a01b038616600090815260056020526040812080549294509250906106d9908490611010565b9091555050600354600880546000906106f3908490611010565b90915550506007805490600061070883610ff7565b9190505550826001600160a01b03167f57213678a1941131f1846559e4f0509e68d1a52c4d05bf0c3e8514c7a00b5d0b60035460405161074a91815260200190565b60405180910390a25b505061075e60018055565b50565b610769610dd7565b6107736000610e04565b565b61077d610dd7565b6001600160a01b0381166107e95760405162461bcd60e51b815260206004820152602d60248201527f5645473231526577617264733a2076657269666965722063616e6e6f7420626560448201526c207a65726f206164647265737360981b606482015260840161031d565b6001600160a01b03811660009081526006602052604090205460ff16156108525760405162461bcd60e51b815260206004820181905260248201527f5645473231526577617264733a20616c72656164792061207665726966696572604482015260640161031d565b6001600160a01b038116600081815260066020526040808220805460ff19166001179055517f6d05492139c5ea989514a5d2150c028041e5c087e2a39967f67dc7d2655adb819190a250565b3360009081526006602052604090205460ff166108cd5760405162461bcd60e51b815260040161031d90610f9b565b6001600160a01b0382166109355760405162461bcd60e51b815260206004820152602960248201527f5645473231526577617264733a20757365722063616e6e6f74206265207a65726044820152686f206164647265737360b81b606482015260840161031d565b6001600160a01b038216600090815260046020526040902060010154158061097857506001600160a01b03821660009081526004602052604090206003015460ff165b6109df5760405162461bcd60e51b815260206004820152603260248201527f5645473231526577617264733a207573657220616c72656164792068617320616044820152716e20616374697665206368616c6c656e676560701b606482015260840161031d565b6040518060c00160405280836001600160a01b03168152602001826003811115610a0b57610a0b610e92565b815242602080830191909152600060408084018290526060840182905260809093018190526001600160a01b038087168252600483529290208351815493166001600160a01b0319841681178255918401519092909183916001600160a81b03191617600160a01b836003811115610a8557610a85610e92565b021790555060408281015160018301556060830151600283015560808301516003909201805460a09094015115156101000261ff00199315159390931661ffff199094169390931791909117909155516001600160a01b038316907fb8b117d60bee088e4e87743907a4285a99f157dcb129e9c3ba5733d261e499cf90610b0f9084904290611029565b60405180910390a25050565b610b23610dd7565b6001600160a01b03811660009081526006602052604090205460ff16610b8b5760405162461bcd60e51b815260206004820152601c60248201527f5645473231526577617264733a206e6f74206120766572696669657200000000604482015260640161031d565b6001600160a01b038116600081815260066020526040808220805460ff19169055517f44a3cd4eb5cc5748f6169df057b1cb2ae4c383e87cd94663c430e095d4cba4249190a250565b610bdc610dd7565b60008211610c405760405162461bcd60e51b815260206004820152602b60248201527f5645473231526577617264733a206461696c7920726577617264206d7573742060448201526a626520706f73697469766560a81b606482015260840161031d565b60008111610ca85760405162461bcd60e51b815260206004820152602f60248201527f5645473231526577617264733a20636f6d706c6574696f6e20626f6e7573206d60448201526e75737420626520706f73697469766560881b606482015260840161031d565b6002829055600381905560408051838152602081018390527f08c3219f2638ed0ddeebb022716ff77cc06a236f399256daec66491b774ee7f2910160405180910390a15050565b6001600160a01b038116600090815260046020526040812060038101548291829182918291829060ff16158015610d2a575060158260020154105b15610d42576002820154610d3f906015611044565b90505b81546001830154600284015460039094015460ff600160a01b90930483169b919a50939850921695509350915050565b610d7a610dd7565b6001600160a01b038116610da457604051631e4fbdf760e01b81526000600482015260240161031d565b61075e81610e04565b600260015403610dd057604051633ee5aeb560e01b815260040160405180910390fd5b6002600155565b6000546001600160a01b031633146107735760405163118cdaa760e01b815233600482015260240161031d565b600080546001600160a01b038381166001600160a01b0319831681178455604051919092169283917f8be0079c531659141344cd1fd0a4f28419497f9722a3daafe3b4186f6b6457e09190a35050565b80356001600160a01b0381168114610e6b57600080fd5b919050565b600060208284031215610e8257600080fd5b610e8b82610e54565b9392505050565b634e487b7160e01b600052602160045260246000fd5b60048110610ec657634e487b7160e01b600052602160045260246000fd5b9052565b6001600160a01b038716815260c08101610ee76020830188610ea8565b604082019590955260608101939093529015156080830152151560a09091015292915050565b60008060408385031215610f2057600080fd5b610f2983610e54565b9150602083013560048110610f3d57600080fd5b809150509250929050565b60008060408385031215610f5b57600080fd5b50508035926020909101359150565b60a08101610f788288610ea8565b602082019590955260408101939093529015156060830152608090910152919050565b60208082526026908201527f5645473231526577617264733a2063616c6c6572206973206e6f7420612076656040820152653934b334b2b960d11b606082015260800190565b634e487b7160e01b600052601160045260246000fd5b60006001820161100957611009610fe1565b5060010190565b8082018082111561102357611023610fe1565b92915050565b604081016110378285610ea8565b8260208301529392505050565b8181038181111561102357611023610fe156fea2646970667358221220450253b6239ceb685ae55efdbffb4e4dbe281ebf526c2fb439d63fffc4e050d464736f6c63430008140033",
  "linkReferences": {},
  "deployedLinkReferences": {}
}