{
  "_format": "hh-sol-artifact-1",
  "contractName": "VEG21Token",
  "sourceName": "contracts/VEG21TokenMock.sol",
  "abi": [
    {
      "inputs": [
        {
          "internalType": "uint256",
          "name": "initialSupply",
          "type": "uint256"
        }
      ],
      "stateMutability": "nonpayable",
      "type": "constructor"
    },
    {
      "anonymous": false,
      "inputs": [
        {
          "indexed": true,
          "internalType": "address",
          "name": "owner",
          "type": "address"
        },
        {
          "indexed": true,
          "internalType": "address",
          "name": "spender",
          "type": "address"
        },
        {
          "indexed": false,
          "internalType": "uint256",
          "name": "value",
          "type": "uint256"
        }
      ],
      "name": "Approval",
      "type": "event"
    },
    {
      "anonymous": false,
      "inputs": [
        {
          "indexed": true,
          "internalType": "address",
          "name": "minter",
          "type": "address"
        }
      ],
      "name": "MinterAdded",
      "type": "event"
    },
    {
      "anonymous": false,
      "inputs": [
        {
          "indexed": true,
          "internalType": "address",
          "name": "minter",
          "type": "address"
        }
      ],
      "name": "MinterRemoved",
      "type": "event"
    },
    {
      "anonymous": false,
      "inputs": [
        {
          "indexed": true,
          "internalType": "address",
          "name": "from",
          "type": "address"
        },
        {
          "indexed": false,
          "internalType": "uint256",
          "name": "amount",
          "type": "uint256"
        },
        {
          "indexed": false,
          "internalType": "string",
          "name": "reason",
          "type": "string"
        }
      ],
      "name": "TokensBurned",
      "type": "event"
    },
    {
      "anonymous": false,
      "inputs": [
        {
          "indexed": true,
          "internalType": "address",
          "name": "to",
          "type": "address"
        },
        {
          "indexed": false,
          "internalType": "uint256",
          "name": "amount",
          "type": "uint256"
        },
        {
          "indexed": false,
          "internalType": "string",
          "name": "reason",
          "type": "string"
        }
      ],
      "name": "TokensMinted",
      "type": "event"
    },
    {
      "anonymous": false,
      "inputs": [
        {
          "indexed": true,
          "internalType": "address",
          "name": "from",
          "type": "address"
        },
        {
          "indexed": true,
          "internalType": "address",
          "name": "to",
          "type": "address"
        },
        {
          "indexed": false,
          "internalType": "uint256",
          "name": "value",
          "type": "uint256"
        }
      ],
      "name": "Transfer",
      "type": "event"
    },
    {
      "inputs": [
        {
          "internalType": "address",
          "name": "minter",
          "type": "address"
        }
      ],
      "name": "addMinter",
      "outputs": [],
      "stateMutability": "nonpayable",
      "type": "function"
    },
    {
      "inputs": [
        {
          "internalType": "address",
          "name": "tokenOwner",
          "type": "address"
        },
        {
          "internalType": "address",
          "name": "spender",
          "type": "address"
        }
      ],
      "name": "allowance",
      "outputs": [
        {
          "internalType": "uint256",
          "name": "",
          "type": "uint256"
        }
      ],
      "stateMutability": "view",
      "type": "function"
    },
    {
      "inputs": [
        {
          "internalType": "address",
          "name": "spender",
          "type": "address"
        },
        {
          "internalType": "uint256",
          "name": "amount",
          "type": "uint256"
        }
      ],
      "name": "approve",
      "outputs": [
        {
          "internalType": "bool",
          "name": "",
          "type": "bool"
        }
      ],
      "stateMutability": "nonpayable",
      "type": "function"
    },
    {
      "inputs": [
        {
          "internalType": "address",
          "name": "",
          "type": "address"
        }
      ],
      "name": "authorizedMinters",
      "outputs": [
        {
          "internalType": "bool",
          "name": "",
          "type": "bool"
        }
      ],
      "stateMutability": "view",
      "type": "function"
    },
    {
      "inputs": [
        {
          "internalType": "address",
          "name": "account",
          "type": "address"
        }
      ],
      "name": "balanceOf",
      "outputs": [
        {
          "internalType": "uint256",
          "name": "",
          "type": "uint256"
        }
      ],
      "stateMutability": "view",
      "type": "function"
    },
    {
      "inputs": [
        {
          "internalType": "address",
          "name": "from",
          "type": "address"
        },
        {
          "internalType": "uint256",
          "name": "amount",
          "type": "uint256"
        },
        {
          "internalType": "string",
          "name": "reason",
          "type": "string"
        }
      ],
      "name": "burn",
      "outputs": [
        {
          "internalType": "bool",
          "name": "",
          "type": "bool"
        }
      ],
      "stateMutability": "nonpayable",
      "type": "function"
    },
    {
      "inputs": [],
      "name": "decimals",
      "outputs": [
        {
          "internalType": "uint8",
          "name": "",
          "type": "uint8"
        }
      ],
      "stateMutability": "view",
      "type": "function"
    },
    {
      "inputs": [
        {
          "internalType": "address",
          "name": "to",
          "type": "address"
        },
        {
          "internalType": "uint256",
          "name": "amount",
          "type": "uint256"
        },
        {
          "internalType": "string",
          "name": "reason",
          "type": "string"
        }
      ],
      "name": "mint",
      "outputs": [
        {
          "internalType": "bool",
          "name": "",
          "type": "bool"
        }
      ],
      "stateMutability": "nonpayable",
      "type": "function"
    },
    {
      "inputs": [],
      "name": "name",
      "outputs": [
        {
          "internalType": "string",
          "name": "",
          "type": "string"
        }
      ],
      "stateMutability": "view",
      "type": "function"
    },
    {
      "inputs": [],
      "name": "owner",
      "outputs": [
        {
          "internalType": "address",
          "name": "",
          "type": "address"
        }
      ],
      "stateMutability": "view",
      "type": "function"
    },
    {
      "inputs": [
        {
          "internalType": "address",
          "name": "minter",
          "type": "address"
        }
      ],
      "name": "removeMinter",
      "outputs": [],
      "stateMutability": "nonpayable",
      "type": "function"
    },
    {
      "inputs": [],
      "name": "symbol",
      "outputs": [
        {
          "internalType": "string",
          "name": "",
          "type": "string"
        }
      ],
      "stateMutability": "view",
      "type": "function"
    },
    {
      "inputs": [],
      "name": "totalSupply",
      "outputs": [
        {
          "internalType": "uint256",
          "name": "",
          "type": "uint256"
        }
      ],
      "stateMutability": "view",
      "type": "function"
    },
    {
      "inputs": [
        {
          "internalType": "address",
          "name": "recipient",
          "type": "address"
        },
        {
          "internalType": "uint256",
          "name": "amount",
          "type": "uint256"
        }
      ],
      "name": "transfer",
      "outputs": [
        {
          "internalType": "bool",
          "name": "",
          "type": "bool"
        }
      ],
      "stateMutability": "nonpayable",
      "type": "function"
    },
    {
      "inputs": [
        {
          "internalType": "address",
          "name": "sender",
          "type": "address"
        },
        {
          "internalType": "address",
          "name": "recipient",
          "type": "address"
        },
        {
          "internalType": "uint256",
          "name": "amount",
          "type": "uint256"
        }
      ],
      "name": "transferFrom",
      "outputs": [
        {
          "internalType": "bool",
          "name": "",
          "type": "bool"
        }
      ],
      "stateMutability": "nonpayable",
      "type": "function"
    },
    {
      "inputs": [
        {
          "internalType": "address",
          "name": "newOwner",
          "type": "address"
        }
      ],
      "name": "transferOwnership",
      "outputs": [],
      "stateMutability": "nonpayable",
      "type": "function"
    }
  ],
  "bytecode": "0x60c0604052600b60809081526a2b22a39918902a37b5b2b760a91b60a0526000906200002c9082620001dc565b50604080518082019091526005815264564547323160d81b6020820152600190620000589082620001dc565b506002805460ff191660121790553480156200007357600080fd5b506040516200131d3803806200131d8339810160408190526200009691620002a8565b600680546001600160a01b031916339081179091556000908152600760205260409020805460ff19166001179055600254620000d79060ff16600a620003d7565b620000e39082620003ef565b600381905533600081815260046020908152604080832085905551938452919290917fddf252ad1be2c89b69c2b068fc378daa952ba7f163c4a11628f55a4df523b3ef910160405180910390a35062000409565b634e487b7160e01b600052604160045260246000fd5b600181811c908216806200016257607f821691505b6020821081036200018357634e487b7160e01b600052602260045260246000fd5b50919050565b601f821115620001d757600081815260208120601f850160051c81016020861015620001b25750805b601f850160051c820191505b81811015620001d357828155600101620001be565b5050505b505050565b81516001600160401b03811115620001f857620001f862000137565b62000210816200020984546200014d565b8462000189565b602080601f8311600181146200024857600084156200022f5750858301515b600019600386901b1c1916600185901b178555620001d3565b600085815260208120601f198616915b82811015620002795788860151825594840194600190910190840162000258565b5085821015620002985787850151600019600388901b60f8161c191681555b5050505050600190811b01905550565b600060208284031215620002bb57600080fd5b5051919050565b634e487b7160e01b600052601160045260246000fd5b600181815b8085111562000319578160001904821115620002fd57620002fd620002c2565b808516156200030b57918102915b93841c9390800290620002dd565b509250929050565b6000826200033257506001620003d1565b816200034157506000620003d1565b81600181146200035a5760028114620003655762000385565b6001915050620003d1565b60ff841115620003795762000379620002c2565b50506001821b620003d1565b5060208310610133831016604e8410600b8410161715620003aa575081810a620003d1565b620003b68383620002d8565b8060001904821115620003cd57620003cd620002c2565b0290505b92915050565b6000620003e860ff84168362000321565b9392505050565b8082028115828204841417620003d157620003d1620002c2565b610f0480620004196000396000f3fe608060405234801561001057600080fd5b50600436106101005760003560e01c80638da5cb5b11610097578063aa2fe91b11610066578063aa2fe91b14610234578063d3fc986414610257578063dd62ed3e1461026a578063f2fde38b146102a357600080fd5b80638da5cb5b146101db57806395d89b4114610206578063983b2d561461020e578063a9059cbb1461022157600080fd5b806323b872dd116100d357806323b872dd1461016b5780633092afd51461017e578063313ce5671461019357806370a08231146101b257600080fd5b806306fdde0314610105578063095ea7b31461012357806315f570dc1461014657806318160ddd14610159575b600080fd5b61010d6102b6565b60405161011a9190610c50565b60405180910390f35b610136610131366004610c86565b610344565b604051901515815260200161011a565b610136610154366004610cc6565b61035b565b6003545b60405190815260200161011a565b610136610179366004610d91565b6104f1565b61019161018c366004610dcd565b61059b565b005b6002546101a09060ff1681565b60405160ff909116815260200161011a565b61015d6101c0366004610dcd565b6001600160a01b031660009081526004602052604090205490565b6006546101ee906001600160a01b031681565b6040516001600160a01b03909116815260200161011a565b61010d61060e565b61019161021c366004610dcd565b61061b565b61013661022f366004610c86565b6106f1565b610136610242366004610dcd565b60076020526000908152604090205460ff1681565b610136610265366004610cc6565b6106fe565b61015d610278366004610de8565b6001600160a01b03918216600090815260056020908152604080832093909416825291909152205490565b6101916102b1366004610dcd565b610898565b600080546102c390610e1b565b80601f01602080910402602001604051908101604052809291908181526020018280546102ef90610e1b565b801561033c5780601f106103115761010080835404028352916020019161033c565b820191906000526020600020905b81548152906001019060200180831161031f57829003601f168201915b505050505081565b6000610351338484610946565b5060015b92915050565b60006001600160a01b03841633148061038357503360009081526007602052604090205460ff165b6103d45760405162461bcd60e51b815260206004820152601860248201527f56454732313a20756e617574686f72697a6564206275726e000000000000000060448201526064015b60405180910390fd5b6001600160a01b0384166000908152600460205260409020548311156104475760405162461bcd60e51b815260206004820152602260248201527f56454732313a206275726e20616d6f756e7420657863656564732062616c616e604482015261636560f01b60648201526084016103cb565b6001600160a01b038416600081815260046020908152604080832080548890039055600380548890039055518681529192917fddf252ad1be2c89b69c2b068fc378daa952ba7f163c4a11628f55a4df523b3ef910160405180910390a3836001600160a01b03167ffad31924d655455395c87544c8aa1ffdb5a7505a22a3c2e03f28003b6556a75f84846040516104df929190610e55565b60405180910390a25060019392505050565b60006104fe848484610a6b565b6001600160a01b0384166000908152600560209081526040808320338452909152902054828110156105835760405162461bcd60e51b815260206004820152602860248201527f56454732313a207472616e7366657220616d6f756e74206578636565647320616044820152676c6c6f77616e636560c01b60648201526084016103cb565b6105908533858403610946565b506001949350505050565b6006546001600160a01b031633146105c55760405162461bcd60e51b81526004016103cb90610e76565b6001600160a01b038116600081815260076020526040808220805460ff19169055517fe94479a9f7e1952cc78f2d6baab678adc1b772d936c6583def489e524cb666929190a250565b600180546102c390610e1b565b6006546001600160a01b031633146106455760405162461bcd60e51b81526004016103cb90610e76565b6001600160a01b0381166106a55760405162461bcd60e51b815260206004820152602160248201527f56454732313a206d696e74657220697320746865207a65726f206164647265736044820152607360f81b60648201526084016103cb565b6001600160a01b038116600081815260076020526040808220805460ff19166001179055517f6ae172837ea30b801fbfcdd4108aa1d5bf8ff775444fd70256b44e6bf3dfc3f69190a250565b6000610351338484610a6b565b3360009081526007602052604081205460ff168061072657506006546001600160a01b031633145b6107825760405162461bcd60e51b815260206004820152602760248201527f56454732313a2063616c6c6572206973206e6f7420617574686f72697a6564206044820152661d1bc81b5a5b9d60ca1b60648201526084016103cb565b6001600160a01b0384166107d85760405162461bcd60e51b815260206004820152601f60248201527f56454732313a206d696e7420746f20746865207a65726f20616464726573730060448201526064016103cb565b82600360008282546107ea9190610ead565b90915550506001600160a01b03841660009081526004602052604081208054859290610817908490610ead565b90915550506040518381526001600160a01b038516906000907fddf252ad1be2c89b69c2b068fc378daa952ba7f163c4a11628f55a4df523b3ef9060200160405180910390a3836001600160a01b03167f9d89e36eadf856db0ad9ffb5a569e07f95634dddd9501141ecf04820484ad0dc84846040516104df929190610e55565b6006546001600160a01b031633146108c25760405162461bcd60e51b81526004016103cb90610e76565b6001600160a01b0381166109245760405162461bcd60e51b8152602060048201526024808201527f56454732313a206e6577206f776e657220697320746865207a65726f206164646044820152637265737360e01b60648201526084016103cb565b600680546001600160a01b0319166001600160a01b0392909216919091179055565b6001600160a01b0383166109a85760405162461bcd60e51b8152602060048201526024808201527f56454732313a20617070726f76652066726f6d20746865207a65726f206164646044820152637265737360e01b60648201526084016103cb565b6001600160a01b038216610a095760405162461bcd60e51b815260206004820152602260248201527f56454732313a20617070726f766520746f20746865207a65726f206164647265604482015261737360f01b60648201526084016103cb565b6001600160a01b0383811660008181526005602090815260408083209487168084529482529182902085905590518481527f8c5be1e5ebec7d5bd14f71427d1e84f3dd0314c0f7b2291e5b200ac8c7c3b92591015b60405180910390a3505050565b6001600160a01b038316610acf5760405162461bcd60e51b815260206004820152602560248201527f56454732313a207472616e736665722066726f6d20746865207a65726f206164604482015264647265737360d81b60648201526084016103cb565b6001600160a01b038216610b315760405162461bcd60e51b815260206004820152602360248201527f56454732313a207472616e7366657220746f20746865207a65726f206164647260448201526265737360e81b60648201526084016103cb565b6001600160a01b038316600090815260046020526040902054811115610ba85760405162461bcd60e51b815260206004820152602660248201527f56454732313a207472616e7366657220616d6f756e7420657863656564732062604482015265616c616e636560d01b60648201526084016103cb565b6001600160a01b03808416600081815260046020526040808220805486900390559285168082529083902080548501905591517fddf252ad1be2c89b69c2b068fc378daa952ba7f163c4a11628f55a4df523b3ef90610a5e9085815260200190565b6000815180845260005b81811015610c3057602081850181015186830182015201610c14565b506000602082860101526020601f19601f83011685010191505092915050565b602081526000610c636020830184610c0a565b9392505050565b80356001600160a01b0381168114610c8157600080fd5b919050565b60008060408385031215610c9957600080fd5b610ca283610c6a565b946020939093013593505050565b634e487b7160e01b600052604160045260246000fd5b600080600060608486031215610cdb57600080fd5b610ce484610c6a565b925060208401359150604084013567ffffffffffffffff80821115610d0857600080fd5b818601915086601f830112610d1c57600080fd5b813581811115610d2e57610d2e610cb0565b604051601f8201601f19908116603f01168101908382118183101715610d5657610d56610cb0565b81604052828152896020848701011115610d6f57600080fd5b8260208601602083013760006020848301015280955050505050509250925092565b600080600060608486031215610da657600080fd5b610daf84610c6a565b9250610dbd60208501610c6a565b9150604084013590509250925092565b600060208284031215610ddf57600080fd5b610c6382610c6a565b60008060408385031215610dfb57600080fd5b610e0483610c6a565b9150610e1260208401610c6a565b90509250929050565b600181811c90821680610e2f57607f821691505b602082108103610e4f57634e487b7160e01b600052602260045260246000fd5b50919050565b828152604060208201526000610e6e6040830184610c0a565b949350505050565b6020808252601e908201527f56454732313a2063616c6c6572206973206e6f7420746865206f776e65720000604082015260600190565b8082018082111561035557634e487b7160e01b600052601160045260246000fdfea264697066735822122078876673bdd66ee1a9c13fc3f61f939027f45d0433ba77f43a0384dd6a15f10e64736f6c63430008140033",
  "linkReferences": {},
  "deployedLinkReferences": {}
}