{
  "_format": "hh-sol-artifact-1",
  "contractName": "VEG21Staking",
  "sourceName": "contracts/Staking.sol",
  "abi": [
    {
      "inputs": [],
      "name": "InsufficientBalance",
      "type": "error"
    },
    {
      "inputs": [],
      "name": "InsufficientStake",
      "type": "error"
    },
    {
      "inputs": [],
      "name": "ZeroAmount",
      "type": "error"
    },
    {
      "anonymous": false,
      "inputs": [
        {
          "indexed": true,
          "internalType": "address",
          "name": "user",
          "type": "address"
        },
        {
          "indexed": false,
          "internalType": "uint256",
          "name": "reward",
          "type": "uint256"
        },
        {
          "indexed": false,
          "internalType": "uint256",
          "name": "timestamp",
          "type": "uint256"
        }
      ],
      "name": "RewardClaimed",
      "type": "event"
    },
    {
      "anonymous": false,
      "inputs": [
        {
          "indexed": true,
          "internalType": "address",
          "name": "user",
          "type": "address"
        },
        {
          "indexed": false,
          "internalType": "uint256",
          "name": "amount",
          "type": "uint256"
        },
        {
          "indexed": false,
          "internalType": "uint256",
          "name": "timestamp",
          "type": "uint256"
        }
      ],
      "name": "Staked",
      "type": "event"
    },
    {
      "anonymous": false,
      "inputs": [
        {
          "indexed": true,
          "internalType": "address",
          "name": "user",
          "type": "address"
        },
        {
          "indexed": false,
          "internalType": "uint256",
          "name": "amount",
          "type": "uint256"
        },
        {
          "indexed": false,
          "internalType": "uint256",
          "name": "timestamp",
          "type": "uint256"
        }
      ],
      "name": "Unstaked",
      "type": "event"
    },
    {
      "stateMutability": "payable",
      "type": "fallback"
    },
    {
      "inputs": [],
      "name": "SECONDS_PER_DAY",
      "outputs": [
        {
          "internalType": "uint256",
          "name": "",
          "type": "uint256"
        }
      ],
      "stateMutability": "view",
      "type": "function"
    },
    {
      "inputs": [
        {
          "internalType": "address",
          "name": "user",
          "type": "address"
        }
      ],
      "name": "calculateReward",
      "outputs": [
        {
          "internalType": "uint256",
          "name": "",
          "type": "uint256"
        }
      ],
      "stateMutability": "view",
      "type": "function"
    },
    {
      "inputs": [],
      "name": "claimRewards",
      "outputs": [],
      "stateMutability": "nonpayable",
      "type": "function"
    },
    {
      "inputs": [],
      "name": "getContractBalance",
      "outputs": [
        {
          "internalType": "uint256",
          "name": "",
          "type": "uint256"
        }
      ],
      "stateMutability": "view",
      "type": "function"
    },
    {
      "inputs": [],
      "name": "getContractInfo",
      "outputs": [
        {
          "internalType": "uint256",
          "name": "",
          "type": "uint256"
        },
        {
          "internalType": "uint256",
          "name": "",
          "type": "uint256"
        },
        {
          "internalType": "uint256",
          "name": "",
          "type": "uint256"
        }
      ],
      "stateMutability": "view",
      "type": "function"
    },
    {
      "inputs": [],
      "name": "getPendingRewards",
      "outputs": [
        {
          "internalType": "uint256",
          "name": "",
          "type": "uint256"
        }
      ],
      "stateMutability": "view",
      "type": "function"
    },
    {
      "inputs": [
        {
          "internalType": "address",
          "name": "user",
          "type": "address"
        }
      ],
      "name": "getStake",
      "outputs": [
        {
          "internalType": "uint256",
          "name": "",
          "type": "uint256"
        }
      ],
      "stateMutability": "view",
      "type": "function"
    },
    {
      "inputs": [
        {
          "internalType": "address",
          "name": "user",
          "type": "address"
        }
      ],
      "name": "getStakingTimestamp",
      "outputs": [
        {
          "internalType": "uint256",
          "name": "",
          "type": "uint256"
        }
      ],
      "stateMutability": "view",
      "type": "function"
    },
    {
      "inputs": [],
      "name": "rewardRate",
      "outputs": [
        {
          "internalType": "uint256",
          "name": "",
          "type": "uint256"
        }
      ],
      "stateMutability": "view",
      "type": "function"
    },
    {
      "inputs": [
        {
          "internalType": "uint256",
          "name": "amount",
          "type": "uint256"
        }
      ],
      "name": "stake",
      "outputs": [],
      "stateMutability": "payable",
      "type": "function"
    },
    {
      "inputs": [],
      "name": "totalStaked",
      "outputs": [
        {
          "internalType": "uint256",
          "name": "",
          "type": "uint256"
        }
      ],
      "stateMutability": "view",
      "type": "function"
    },
    {
      "inputs": [
        {
          "internalType": "uint256",
          "name": "amount",
          "type": "uint256"
        }
      ],
      "name": "unstake",
      "outputs": [],
      "stateMutability": "nonpayable",
      "type": "function"
    },
    {
      "stateMutability": "payable",
      "type": "receive"
    }
  ],
  "bytecode": "0x6080604052606460035534801561001557600080fd5b50610784806100256000396000f3fe6080604052600436106100a55760003560e01c80637cc1f867116100615780637cc1f86714610168578063817b1cd214610193578063969de47a146101a9578063a694fc3a146101df578063d82e3962146101f2578063d9621f9e1461021257005b80632e17de78146100ae578063372500ab146100ce5780636f9fb98a146100e357806374f0314f146101055780637a7664601461011c5780637b0a47ee1461015257005b366100ac57005b005b3480156100ba57600080fd5b506100ac6100c936600461068a565b610227565b3480156100da57600080fd5b506100ac6103cb565b3480156100ef57600080fd5b50475b6040519081526020015b60405180910390f35b34801561011157600080fd5b506100f26201518081565b34801561012857600080fd5b506100f26101373660046106a3565b6001600160a01b031660009081526020819052604090205490565b34801561015e57600080fd5b506100f260035481565b34801561017457600080fd5b50600254600354604080519283524760208401528201526060016100fc565b34801561019f57600080fd5b506100f260025481565b3480156101b557600080fd5b506100f26101c43660046106a3565b6001600160a01b031660009081526001602052604090205490565b6100ac6101ed36600461068a565b61047f565b3480156101fe57600080fd5b506100f261020d3660046106a3565b6105d7565b34801561021e57600080fd5b506100f261067a565b8060000361024857604051631f2a200560e01b815260040160405180910390fd5b33600090815260208190526040902054811115610278576040516378de4a6960e11b815260040160405180910390fd5b6000610283336105d7565b336000908152602081905260408120805492935084929091906102a79084906106e9565b9250508190555081600260008282546102c091906106e9565b90915550503360009081526001602052604081204290556102e18284610702565b905080471061031d57604051339082156108fc029083906000818181858888f19350505050158015610317573d6000803e3d6000fd5b5061034b565b60405133904780156108fc02916000818181858888f19350505050158015610349573d6000803e3d6000fd5b505b6040805184815242602082015233917f7fc4727e062e336010f2c282598ef5f14facb3de68cf8195c2f23e1454b2b74e910160405180910390a281156103c6576040805183815242602082015233917ff01da32686223933d8a18a391060918c7f11a3648639edd87ae013e2e2731743910160405180910390a25b505050565b60006103d6336105d7565b9050806000036103f957604051631f2a200560e01b815260040160405180910390fd5b33600090815260016020526040902042905547811161047c57604051339082156108fc029083906000818181858888f1935050505015801561043f573d6000803e3d6000fd5b506040805182815242602082015233917ff01da32686223933d8a18a391060918c7f11a3648639edd87ae013e2e273174391015b60405180910390a25b50565b806000036104a057604051631f2a200560e01b815260040160405180910390fd5b8034146104c057604051631e9acf1760e31b815260040160405180910390fd5b33600090815260208190526040902054156105535760006104e0336105d7565b9050801561055157604051339082156108fc029083906000818181858888f19350505050158015610515573d6000803e3d6000fd5b506040805182815242602082015233917ff01da32686223933d8a18a391060918c7f11a3648639edd87ae013e2e2731743910160405180910390a25b505b3360009081526020819052604081208054839290610572908490610702565b90915550503360009081526001602052604081204290556002805483929061059b908490610702565b90915550506040805182815242602082015233917f1449c6dd7851abc30abf37f57715f492010519147cc2652fbc38202c18a6ee909101610473565b6001600160a01b03811660009081526020819052604081205481036105fe57506000919050565b6001600160a01b03821660009081526001602052604081205461062190426106e9565b6003546001600160a01b038516600090815260208190526040812054929350916127109161064e91610715565b610658919061072c565b9050620151806106688383610715565b610672919061072c565b949350505050565b6000610685336105d7565b905090565b60006020828403121561069c57600080fd5b5035919050565b6000602082840312156106b557600080fd5b81356001600160a01b03811681146106cc57600080fd5b9392505050565b634e487b7160e01b600052601160045260246000fd5b818103818111156106fc576106fc6106d3565b92915050565b808201808211156106fc576106fc6106d3565b80820281158282048414176106fc576106fc6106d3565b60008261074957634e487b7160e01b600052601260045260246000fd5b50049056fea26469706673582212203c51c7199354b0bb3f9f66bff638ba9fb3d756caa46a80209ad4220ee039d6fe64736f6c63430008140033",
  "linkReferences": {},
  "deployedLinkReferences": {}
}