{
  "_format": "hh-sol-artifact-1",
  "contractName": "VEG21Staking",
  "sourceName": "contracts/VEG21Staking.sol",
  "abi": [
    {
      "inputs": [
        {
          "internalType": "address",
          "name": "_veg21Token",
          "type": "address"
        },
        {
          "internalType": "address",
          "name": "initialOwner",
          "type": "address"
        }
      ],
      "stateMutability": "nonpayable",
      "type": "constructor"
    },
    {
      "inputs": [
        {
          "internalType": "address",
          "name": "owner",
          "type": "address"
        }
      ],
      "name": "OwnableInvalidOwner",
      "type": "error"
    },
    {
      "inputs": [
        {
          "internalType": "address",
          "name": "account",
          "type": "address"
        }
      ],
      "name": "OwnableUnauthorizedAccount",
      "type": "error"
    },
    {
      "inputs": [],
      "name": "ReentrancyGuardReentrantCall",
      "type": "error"
    },
    {
      "anonymous": false,
      "inputs": [
        {
          "indexed": true,
          "internalType": "address",
          "name": "previousOwner",
          "type": "address"
        },
        {
          "indexed": true,
          "internalType": "address",
          "name": "newOwner",
          "type": "address"
        }
      ],
      "name": "OwnershipTransferred",
      "type": "event"
    },
    {
      "anonymous": false,
      "inputs": [
        {
          "indexed": true,
          "internalType": "address",
          "name": "user",
          "type": "address"
        },
        {
          "indexed": false,
          "internalType": "uint256",
          "name": "reward",
          "type": "uint256"
        }
      ],
      "name": "RewardClaimed",
      "type": "event"
    },
    {
      "anonymous": false,
      "inputs": [
        {
          "indexed": false,
          "internalType": "uint256",
          "name": "oldRate",
          "type": "uint256"
        },
        {
          "indexed": false,
          "internalType": "uint256",
          "name": "newRate",
          "type": "uint256"
        }
      ],
      "name": "RewardRateUpdated",
      "type": "event"
    },
    {
      "anonymous": false,
      "inputs": [
        {
          "indexed": true,
          "internalType": "address",
          "name": "user",
          "type": "address"
        },
        {
          "indexed": false,
          "internalType": "uint256",
          "name": "amount",
          "type": "uint256"
        }
      ],
      "name": "Staked",
      "type": "event"
    },
    {
      "anonymous": false,
      "inputs": [
        {
          "indexed": true,
          "internalType": "address",
          "name": "user",
          "type": "address"
        },
        {
          "indexed": false,
          "internalType": "uint256",
          "name": "amount",
          "type": "uint256"
        }
      ],
      "name": "Unstaked",
      "type": "event"
    },
    {
      "inputs": [],
      "name": "BASIS_POINTS",
      "outputs": [
        {
          "internalType": "uint256",
          "name": "",
          "type": "uint256"
        }
      ],
      "stateMutability": "view",
      "type": "function"
    },
    {
      "inputs": [],
      "name": "SECONDS_PER_YEAR",
      "outputs": [
        {
          "internalType": "uint256",
          "name": "",
          "type": "uint256"
        }
      ],
      "stateMutability": "view",
      "type": "function"
    },
    {
      "inputs": [
        {
          "internalType": "address",
          "name": "user",
          "type": "address"
        }
      ],
      "name": "calculateReward",
      "outputs": [
        {
          "internalType": "uint256",
          "name": "",
          "type": "uint256"
        }
      ],
      "stateMutability": "view",
      "type": "function"
    },
    {
      "inputs": [],
      "name": "claimRewards",
      "outputs": [],
      "stateMutability": "nonpayable",
      "type": "function"
    },
    {
      "inputs": [
        {
          "internalType": "address",
          "name": "user",
          "type": "address"
        }
      ],
      "name": "getStakeInfo",
      "outputs": [
        {
          "internalType": "uint256",
          "name": "amount",
          "type": "uint256"
        },
        {
          "internalType": "uint256",
          "name": "startTime",
          "type": "uint256"
        },
        {
          "internalType": "uint256",
          "name": "pendingReward",
          "type": "uint256"
        }
      ],
      "stateMutability": "view",
      "type": "function"
    },
    {
      "inputs": [],
      "name": "owner",
      "outputs": [
        {
          "internalType": "address",
          "name": "",
          "type": "address"
        }
      ],
      "stateMutability": "view",
      "type": "function"
    },
    {
      "inputs": [],
      "name": "renounceOwnership",
      "outputs": [],
      "stateMutability": "nonpayable",
      "type": "function"
    },
    {
      "inputs": [],
      "name": "rewardRateBasisPoints",
      "outputs": [
        {
          "internalType": "uint256",
          "name": "",
          "type": "uint256"
        }
      ],
      "stateMutability": "view",
      "type": "function"
    },
    {
      "inputs": [
        {
          "internalType": "uint256",
          "name": "newRateBasisPoints",
          "type": "uint256"
        }
      ],
      "name": "setRewardRate",
      "outputs": [],
      "stateMutability": "nonpayable",
      "type": "function"
    },
    {
      "inputs": [
        {
          "internalType": "uint256",
          "name": "amount",
          "type": "uint256"
        }
      ],
      "name": "stake",
      "outputs": [],
      "stateMutability": "nonpayable",
      "type": "function"
    },
    {
      "inputs": [
        {
          "internalType": "address",
          "name": "",
          "type": "address"
        }
      ],
      "name": "stakes",
      "outputs": [
        {
          "internalType": "uint256",
          "name": "amount",
          "type": "uint256"
        },
        {
          "internalType": "uint256",
          "name": "startTime",
          "type": "uint256"
        },
        {
          "internalType": "uint256",
          "name": "lastClaimTime",
          "type": "uint256"
        }
      ],
      "stateMutability": "view",
      "type": "function"
    },
    {
      "inputs": [],
      "name": "totalStaked",
      "outputs": [
        {
          "internalType": "uint256",
          "name": "",
          "type": "uint256"
        }
      ],
      "stateMutability": "view",
      "type": "function"
    },
    {
      "inputs": [
        {
          "internalType": "address",
          "name": "newOwner",
          "type": "address"
        }
      ],
      "name": "transferOwnership",
      "outputs": [],
      "stateMutability": "nonpayable",
      "type": "function"
    },
    {
      "inputs": [],
      "name": "unstake",
      "outputs": [],
      "stateMutability": "nonpayable",
      "type": "function"
    },
    {
      "inputs": [],
      "name": "veg21Token",
      "outputs": [
        {
          "internalType": "contract VEG21Token",
          "name": "",
          "type": "address"
        }
      ],
      "stateMutability": "view",
      "type": "function"
    }
  ],
  "bytecode": "0x60a06040526103e860025534801561001657600080fd5b50604051610ca9380380610ca98339810160408190526100359161015a565b806001600160a01b03811661006557604051631e4fbdf760e01b8152600060048201526024015b60405180910390fd5b61006e816100ee565b50600180556001600160a01b0382166100dc5760405162461bcd60e51b815260206004820152602a60248201527f56454732315374616b696e673a20746f6b656e20616464726573732063616e6e6044820152696f74206265207a65726f60b01b606482015260840161005c565b506001600160a01b031660805261018d565b600080546001600160a01b038381166001600160a01b0319831681178455604051919092169283917f8be0079c531659141344cd1fd0a4f28419497f9722a3daafe3b4186f6b6457e09190a35050565b80516001600160a01b038116811461015557600080fd5b919050565b6000806040838503121561016d57600080fd5b6101768361013e565b91506101846020840161013e565b90509250929050565b608051610aec6101bd600039600081816101e6015281816102fc015281816105d401526108bf0152610aec6000f3fe608060405234801561001057600080fd5b50600436106100f55760003560e01c80639e447fc611610097578063d82e396211610066578063d82e396214610208578063e1f1c4a71461021b578063e6a69ab814610224578063f2fde38b1461022f57600080fd5b80639e447fc6146101a8578063a694fc3a146101bb578063c3453153146101ce578063cfd4b1e2146101e157600080fd5b8063715018a6116100d3578063715018a61461015b578063817b1cd2146101635780638da5cb5b1461017a5780638f25003a1461019f57600080fd5b806316934fc4146100fa5780632def662014610149578063372500ab14610153575b600080fd5b6101296101083660046109d0565b60036020526000908152604090208054600182015460029092015490919083565b604080519384526020840192909252908201526060015b60405180910390f35b610151610242565b005b6101516103ff565b610151610474565b61016c60045481565b604051908152602001610140565b6000546001600160a01b03165b6040516001600160a01b039091168152602001610140565b61016c60025481565b6101516101b6366004610a00565b610486565b6101516101c9366004610a00565b610531565b6101296101dc3660046109d0565b61072e565b6101877f000000000000000000000000000000000000000000000000000000000000000081565b61016c6102163660046109d0565b61076a565b61016c61271081565b61016c6301e1338081565b61015161023d3660046109d0565b6107e6565b61024a610821565b33600090815260036020526040902080546102ac5760405162461bcd60e51b815260206004820152601e60248201527f56454732315374616b696e673a206e6f20746f6b656e73207374616b6564000060448201526064015b60405180910390fd5b80546102b661084b565b60008083556001830181905560028301819055600480548392906102db908490610a2f565b909155505060405163a9059cbb60e01b8152336004820152602481018290527f00000000000000000000000000000000000000000000000000000000000000006001600160a01b03169063a9059cbb906044016020604051808303816000875af115801561034d573d6000803e3d6000fd5b505050506040513d601f19601f820116820180604052508101906103719190610a48565b6103bd5760405162461bcd60e51b815260206004820152601d60248201527f56454732315374616b696e673a207472616e73666572206661696c656400000060448201526064016102a3565b60405181815233907f0f5bb82176feb1b5e747e28471aa92156a04d9f3ab9f45f28e2d704232b93f759060200160405180910390a250506103fd60018055565b565b610407610821565b336000908152600360205260409020546104635760405162461bcd60e51b815260206004820152601e60248201527f56454732315374616b696e673a206e6f20746f6b656e73207374616b6564000060448201526064016102a3565b61046b61084b565b6103fd60018055565b61047c610953565b6103fd6000610980565b61048e610953565b6113888111156104ec5760405162461bcd60e51b8152602060048201526024808201527f56454732315374616b696e673a20726174652063616e6e6f74206578636565646044820152632035302560e01b60648201526084016102a3565b600280549082905560408051828152602081018490527fc390a98ace15a7bb6bab611eedfdbb2685043b241a869420043cdfb23ccfee50910160405180910390a15050565b610539610821565b600081116105955760405162461bcd60e51b815260206004820152602360248201527f56454732315374616b696e673a2063616e6e6f74207374616b65203020746f6b604482015262656e7360e81b60648201526084016102a3565b33600090815260036020526040902054156105b2576105b261084b565b6040516323b872dd60e01b8152336004820152306024820152604481018290527f00000000000000000000000000000000000000000000000000000000000000006001600160a01b0316906323b872dd906064016020604051808303816000875af1158015610625573d6000803e3d6000fd5b505050506040513d601f19601f820116820180604052508101906106499190610a48565b6106955760405162461bcd60e51b815260206004820152601d60248201527f56454732315374616b696e673a207472616e73666572206661696c656400000060448201526064016102a3565b33600090815260036020526040812080548392906106b4908490610a6a565b90915550503360009081526003602052604081204260018201819055600290910155600480548392906106e8908490610a6a565b909155505060405181815233907f9e71bc8eea02a63969f509818f2dafb9254532904319f9dbda79b67bd34a5f3d9060200160405180910390a261072b60018055565b50565b6001600160a01b03811660009081526003602052604081208054600182015483928392909161075c8761076a565b935093509350509193909250565b6001600160a01b0381166000908152600360205260408120805482036107935750600092915050565b60008160020154426107a59190610a2f565b905060006107b96127106301e13380610a7d565b60025484546107c9908590610a7d565b6107d39190610a7d565b6107dd9190610a94565b95945050505050565b6107ee610953565b6001600160a01b03811661081857604051631e4fbdf760e01b8152600060048201526024016102a3565b61072b81610980565b60026001540361084457604051633ee5aeb560e01b815260040160405180910390fd5b6002600155565b60006108563361076a565b9050801561072b57336000818152600360205260409081902042600290910155516334ff261960e21b815260048101919091526024810182905260606044820152600e60648201526d1cdd185ada5b99d7dc995dd85c9960921b60848201526001600160a01b037f0000000000000000000000000000000000000000000000000000000000000000169063d3fc98649060a401600060405180830381600087803b15801561090357600080fd5b505af1158015610917573d6000803e3d6000fd5b50506040518381523392507f106f923f993c2149d49b4255ff723acafa1f2d94393f561d3eda32ae348f7241915060200160405180910390a250565b6000546001600160a01b031633146103fd5760405163118cdaa760e01b81523360048201526024016102a3565b600080546001600160a01b038381166001600160a01b0319831681178455604051919092169283917f8be0079c531659141344cd1fd0a4f28419497f9722a3daafe3b4186f6b6457e09190a35050565b6000602082840312156109e257600080fd5b81356001600160a01b03811681146109f957600080fd5b9392505050565b600060208284031215610a1257600080fd5b5035919050565b634e487b7160e01b600052601160045260246000fd5b81810381811115610a4257610a42610a19565b92915050565b600060208284031215610a5a57600080fd5b815180151581146109f957600080fd5b80820180821115610a4257610a42610a19565b8082028115828204841417610a4257610a42610a19565b600082610ab157634e487b7160e01b600052601260045260246000fd5b50049056fea264697066735822122017f189455a55367211b4b69f915e3b4e7ba74c5ce5b20f56dabcf77c13b03e2964736f6c63430008140033",
  "linkReferences": {},
  "deployedLinkReferences": {}
}