{
  "_format": "hh-sol-artifact-1",
  "contractName": "VEG21Token",
  "sourceName": "contracts/VEG21Token.sol",
  "abi": [
    {
      "inputs": [
        {
          "internalType": "uint256",
          "name": "initialSupply",
          "type": "uint256"
        },
        {
          "internalType": "address",
          "name": "initialOwner",
          "type": "address"
        }
      ],
      "stateMutability": "nonpayable",
      "type": "constructor"
    },
    {
      "inputs": [],
      "name": "AccessControlBadConfirmation",
      "type": "error"
    },
    {
      "inputs": [
        {
          "internalType": "address",
          "name": "account",
          "type": "address"
        },
        {
          "internalType": "bytes32",
          "name": "neededRole",
          "type": "bytes32"
        }
      ],
      "name": "AccessControlUnauthorizedAccount",
      "type": "error"
    },
    {
      "inputs": [
        {
          "internalType": "address",
          "name": "spender",
          "type": "address"
        },
        {
          "internalType": "uint256",
          "name": "allowance",
          "type": "uint256"
        },
        {
          "internalType": "uint256",
          "name": "needed",
          "type": "uint256"
        }
      ],
      "name": "ERC20InsufficientAllowance",
      "type": "error"
    },
    {
      "inputs": [
        {
          "internalType": "address",
          "name": "sender",
          "type": "address"
        },
        {
          "internalType": "uint256",
          "name": "balance",
          "type": "uint256"
        },
        {
          "internalType": "uint256",
          "name": "needed",
          "type": "uint256"
        }
      ],
      "name": "ERC20InsufficientBalance",
      "type": "error"
    },
    {
      "inputs": [
        {
          "internalType": "address",
          "name": "approver",
          "type": "address"
        }
      ],
      "name": "ERC20InvalidApprover",
      "type": "error"
    },
    {
      "inputs": [
        {
          "internalType": "address",
          "name": "receiver",
          "type": "address"
        }
      ],
      "name": "ERC20InvalidReceiver",
      "type": "error"
    },
    {
      "inputs": [
        {
          "internalType": "address",
          "name": "sender",
          "type": "address"
        }
      ],
      "name": "ERC20InvalidSender",
      "type": "error"
    },
    {
      "inputs": [
        {
          "internalType": "address",
          "name": "spender",
          "type": "address"
        }
      ],
      "name": "ERC20InvalidSpender",
      "type": "error"
    },
    {
      "inputs": [],
      "name": "EnforcedPause",
      "type": "error"
    },
    {
      "inputs": [],
      "name": "ExpectedPause",
      "type": "error"
    },
    {
      "inputs": [
        {
          "internalType": "address",
          "name": "owner",
          "type": "address"
        }
      ],
      "name": "OwnableInvalidOwner",
      "type": "error"
    },
    {
      "inputs": [
        {
          "internalType": "address",
          "name": "account",
          "type": "address"
        }
      ],
      "name": "OwnableUnauthorizedAccount",
      "type": "error"
    },
    {
      "anonymous": false,
      "inputs": [
        {
          "indexed": true,
          "internalType": "address",
          "name": "owner",
          "type": "address"
        },
        {
          "indexed": true,
          "internalType": "address",
          "name": "spender",
          "type": "address"
        },
        {
          "indexed": false,
          "internalType": "uint256",
          "name": "value",
          "type": "uint256"
        }
      ],
      "name": "Approval",
      "type": "event"
    },
    {
      "anonymous": false,
      "inputs": [
        {
          "indexed": true,
          "internalType": "address",
          "name": "account",
          "type": "address"
        }
      ],
      "name": "MinterAdded",
      "type": "event"
    },
    {
      "anonymous": false,
      "inputs": [
        {
          "indexed": true,
          "internalType": "address",
          "name": "account",
          "type": "address"
        }
      ],
      "name": "MinterRemoved",
      "type": "event"
    },
    {
      "anonymous": false,
      "inputs": [
        {
          "indexed": true,
          "internalType": "address",
          "name": "previousOwner",
          "type": "address"
        },
        {
          "indexed": true,
          "internalType": "address",
          "name": "newOwner",
          "type": "address"
        }
      ],
      "name": "OwnershipTransferred",
      "type": "event"
    },
    {
      "anonymous": false,
      "inputs": [
        {
          "indexed": false,
          "internalType": "address",
          "name": "account",
          "type": "address"
        }
      ],
      "name": "Paused",
      "type": "event"
    },
    {
      "anonymous": false,
      "inputs": [
        {
          "indexed": true,
          "internalType": "bytes32",
          "name": "role",
          "type": "bytes32"
        },
        {
          "indexed": true,
          "internalType": "bytes32",
          "name": "previousAdminRole",
          "type": "bytes32"
        },
        {
          "indexed": true,
          "internalType": "bytes32",
          "name": "newAdminRole",
          "type": "bytes32"
        }
      ],
      "name": "RoleAdminChanged",
      "type": "event"
    },
    {
      "anonymous": false,
      "inputs": [
        {
          "indexed": true,
          "internalType": "bytes32",
          "name": "role",
          "type": "bytes32"
        },
        {
          "indexed": true,
          "internalType": "address",
          "name": "account",
          "type": "address"
        },
        {
          "indexed": true,
          "internalType": "address",
          "name": "sender",
          "type": "address"
        }
      ],
      "name": "RoleGranted",
      "type": "event"
    },
    {
      "anonymous": false,
      "inputs": [
        {
          "indexed": true,
          "internalType": "bytes32",
          "name": "role",
          "type": "bytes32"
        },
        {
          "indexed": true,
          "internalType": "address",
          "name": "account",
          "type": "address"
        },
        {
          "indexed": true,
          "internalType": "address",
          "name": "sender",
          "type": "address"
        }
      ],
      "name": "RoleRevoked",
      "type": "event"
    },
    {
      "anonymous": false,
      "inputs": [
        {
          "indexed": true,
          "internalType": "address",
          "name": "from",
          "type": "address"
        },
        {
          "indexed": false,
          "internalType": "uint256",
          "name": "amount",
          "type": "uint256"
        },
        {
          "indexed": false,
          "internalType": "string",
          "name": "reason",
          "type": "string"
        }
      ],
      "name": "TokensBurned",
      "type": "event"
    },
    {
      "anonymous": false,
      "inputs": [
        {
          "indexed": true,
          "internalType": "address",
          "name": "to",
          "type": "address"
        },
        {
          "indexed": false,
          "internalType": "uint256",
          "name": "amount",
          "type": "uint256"
        },
        {
          "indexed": false,
          "internalType": "string",
          "name": "reason",
          "type": "string"
        }
      ],
      "name": "TokensMinted",
      "type": "event"
    },
    {
      "anonymous": false,
      "inputs": [
        {
          "indexed": true,
          "internalType": "address",
          "name": "from",
          "type": "address"
        },
        {
          "indexed": true,
          "internalType": "address",
          "name": "to",
          "type": "address"
        },
        {
          "indexed": false,
          "internalType": "uint256",
          "name": "value",
          "type": "uint256"
        }
      ],
      "name": "Transfer",
      "type": "event"
    },
    {
      "anonymous": false,
      "inputs": [
        {
          "indexed": false,
          "internalType": "address",
          "name": "account",
          "type": "address"
        }
      ],
      "name": "Unpaused",
      "type": "event"
    },
    {
      "inputs": [],
      "name": "DEFAULT_ADMIN_ROLE",
      "outputs": [
        {
          "internalType": "bytes32",
          "name": "",
          "type": "bytes32"
        }
      ],
      "stateMutability": "view",
      "type": "function"
    },
    {
      "inputs": [],
      "name": "MINTER_ROLE",
      "outputs": [
        {
          "internalType": "bytes32",
          "name": "",
          "type": "bytes32"
        }
      ],
      "stateMutability": "view",
      "type": "function"
    },
    {
      "inputs": [],
      "name": "PAUSER_ROLE",
      "outputs": [
        {
          "internalType": "bytes32",
          "name": "",
          "type": "bytes32"
        }
      ],
      "stateMutability": "view",
      "type": "function"
    },
    {
      "inputs": [
        {
          "internalType": "address",
          "name": "account",
          "type": "address"
        }
      ],
      "name": "addMinter",
      "outputs": [],
      "stateMutability": "nonpayable",
      "type": "function"
    },
    {
      "inputs": [
        {
          "internalType": "address",
          "name": "owner",
          "type": "address"
        },
        {
          "internalType": "address",
          "name": "spender",
          "type": "address"
        }
      ],
      "name": "allowance",
      "outputs": [
        {
          "internalType": "uint256",
          "name": "",
          "type": "uint256"
        }
      ],
      "stateMutability": "view",
      "type": "function"
    },
    {
      "inputs": [
        {
          "internalType": "address",
          "name": "spender",
          "type": "address"
        },
        {
          "internalType": "uint256",
          "name": "value",
          "type": "uint256"
        }
      ],
      "name": "approve",
      "outputs": [
        {
          "internalType": "bool",
          "name": "",
          "type": "bool"
        }
      ],
      "stateMutability": "nonpayable",
      "type": "function"
    },
    {
      "inputs": [
        {
          "internalType": "address",
          "name": "account",
          "type": "address"
        }
      ],
      "name": "balanceOf",
      "outputs": [
        {
          "internalType": "uint256",
          "name": "",
          "type": "uint256"
        }
      ],
      "stateMutability": "view",
      "type": "function"
    },
    {
      "inputs": [
        {
          "internalType": "uint256",
          "name": "value",
          "type": "uint256"
        }
      ],
      "name": "burn",
      "outputs": [],
      "stateMutability": "nonpayable",
      "type": "function"
    },
    {
      "inputs": [
        {
          "internalType": "address",
          "name": "account",
          "type": "address"
        },
        {
          "internalType": "uint256",
          "name": "value",
          "type": "uint256"
        }
      ],
      "name": "burnFrom",
      "outputs": [],
      "stateMutability": "nonpayable",
      "type": "function"
    },
    {
      "inputs": [
        {
          "internalType": "address",
          "name": "from",
          "type": "address"
        },
        {
          "internalType": "uint256",
          "name": "amount",
          "type": "uint256"
        },
        {
          "internalType": "string",
          "name": "reason",
          "type": "string"
        }
      ],
      "name": "burnFrom",
      "outputs": [],
      "stateMutability": "nonpayable",
      "type": "function"
    },
    {
      "inputs": [],
      "name": "decimals",
      "outputs": [
        {
          "internalType": "uint8",
          "name": "",
          "type": "uint8"
        }
      ],
      "stateMutability": "view",
      "type": "function"
    },
    {
      "inputs": [
        {
          "internalType": "bytes32",
          "name": "role",
          "type": "bytes32"
        }
      ],
      "name": "getRoleAdmin",
      "outputs": [
        {
          "internalType": "bytes32",
          "name": "",
          "type": "bytes32"
        }
      ],
      "stateMutability": "view",
      "type": "function"
    },
    {
      "inputs": [
        {
          "internalType": "bytes32",
          "name": "role",
          "type": "bytes32"
        },
        {
          "internalType": "address",
          "name": "account",
          "type": "address"
        }
      ],
      "name": "grantRole",
      "outputs": [],
      "stateMutability": "nonpayable",
      "type": "function"
    },
    {
      "inputs": [
        {
          "internalType": "bytes32",
          "name": "role",
          "type": "bytes32"
        },
        {
          "internalType": "address",
          "name": "account",
          "type": "address"
        }
      ],
      "name": "hasRole",
      "outputs": [
        {
          "internalType": "bool",
          "name": "",
          "type": "bool"
        }
      ],
      "stateMutability": "view",
      "type": "function"
    },
    {
      "inputs": [
        {
          "internalType": "address",
          "name": "account",
          "type": "address"
        }
      ],
      "name": "isMinter",
      "outputs": [
        {
          "internalType": "bool",
          "name": "",
          "type": "bool"
        }
      ],
      "stateMutability": "view",
      "type": "function"
    },
    {
      "inputs": [
        {
          "internalType": "address",
          "name": "to",
          "type": "address"
        },
        {
          "internalType": "uint256",
          "name": "amount",
          "type": "uint256"
        },
        {
          "internalType": "string",
          "name": "reason",
          "type": "string"
        }
      ],
      "name": "mint",
      "outputs": [],
      "stateMutability": "nonpayable",
      "type": "function"
    },
    {
      "inputs": [],
      "name": "name",
      "outputs": [
        {
          "internalType": "string",
          "name": "",
          "type": "string"
        }
      ],
      "stateMutability": "view",
      "type": "function"
    },
    {
      "inputs": [],
      "name": "owner",
      "outputs": [
        {
          "internalType": "address",
          "name": "",
          "type": "address"
        }
      ],
      "stateMutability": "view",
      "type": "function"
    },
    {
      "inputs": [],
      "name": "pause",
      "outputs": [],
      "stateMutability": "nonpayable",
      "type": "function"
    },
    {
      "inputs": [],
      "name": "paused",
      "outputs": [
        {
          "internalType": "bool",
          "name": "",
          "type": "bool"
        }
      ],
      "stateMutability": "view",
      "type": "function"
    },
    {
      "inputs": [
        {
          "internalType": "address",
          "name": "account",
          "type": "address"
        }
      ],
      "name": "removeMinter",
      "outputs": [],
      "stateMutability": "nonpayable",
      "type": "function"
    },
    {
      "inputs": [],
      "name": "renounceOwnership",
      "outputs": [],
      "stateMutability": "nonpayable",
      "type": "function"
    },
    {
      "inputs": [
        {
          "internalType": "bytes32",
          "name": "role",
          "type": "bytes32"
        },
        {
          "internalType": "address",
          "name": "callerConfirmation",
          "type": "address"
        }
      ],
      "name": "renounceRole",
      "outputs": [],
      "stateMutability": "nonpayable",
      "type": "function"
    },
    {
      "inputs": [
        {
          "internalType": "bytes32",
          "name": "role",
          "type": "bytes32"
        },
        {
          "internalType": "address",
          "name": "account",
          "type": "address"
        }
      ],
      "name": "revokeRole",
      "outputs": [],
      "stateMutability": "nonpayable",
      "type": "function"
    },
    {
      "inputs": [
        {
          "internalType": "bytes4",
          "name": "interfaceId",
          "type": "bytes4"
        }
      ],
      "name": "supportsInterface",
      "outputs": [
        {
          "internalType": "bool",
          "name": "",
          "type": "bool"
        }
      ],
      "stateMutability": "view",
      "type": "function"
    },
    {
      "inputs": [],
      "name": "symbol",
      "outputs": [
        {
          "internalType": "string",
          "name": "",
          "type": "string"
        }
      ],
      "stateMutability": "view",
      "type": "function"
    },
    {
      "inputs": [],
      "name": "totalSupply",
      "outputs": [
        {
          "internalType": "uint256",
          "name": "",
          "type": "uint256"
        }
      ],
      "stateMutability": "view",
      "type": "function"
    },
    {
      "inputs": [
        {
          "internalType": "address",
          "name": "to",
          "type": "address"
        },
        {
          "internalType": "uint256",
          "name": "value",
          "type": "uint256"
        }
      ],
      "name": "transfer",
      "outputs": [
        {
          "internalType": "bool",
          "name": "",
          "type": "bool"
        }
      ],
      "stateMutability": "nonpayable",
      "type": "function"
    },
    {
      "inputs": [
        {
          "internalType": "address",
          "name": "from",
          "type": "address"
        },
        {
          "internalType": "address",
          "name": "to",
          "type": "address"
        },
        {
          "internalType": "uint256",
          "name": "value",
          "type": "uint256"
        }
      ],
      "name": "transferFrom",
      "outputs": [
        {
          "internalType": "bool",
          "name": "",
          "type": "bool"
        }
      ],
      "stateMutability": "nonpayable",
      "type": "function"
    },
    {
      "inputs": [
        {
          "internalType": "address",
          "name": "newOwner",
          "type": "address"
        }
      ],
      "name": "transferOwnership",
      "outputs": [],
      "stateMutability": "nonpayable",
      "type": "function"
    },
    {
      "inputs": [],
      "name": "unpause",
      "outputs": [],
      "stateMutability": "nonpayable",
      "type": "function"
    }
  ],
  "bytecode": "0x60806040523480156200001157600080fd5b5060405162001c7038038062001c70833981016040819052620000349162000520565b806040518060400160405280600b81526020016a2b22a39918902a37b5b2b760a91b81525060405180604001604052806005815260200164564547323160d81b815250816003908162000088919062000603565b50600462000097828262000603565b5050506001600160a01b038116620000ca57604051631e4fbdf760e01b8152600060048201526024015b60405180910390fd5b620000d58162000252565b506001600160a01b0381166200013a5760405162461bcd60e51b815260206004820152602360248201527f56454732313a206f776e65722063616e6e6f74206265207a65726f206164647260448201526265737360e81b6064820152608401620000c1565b62000147600082620002ac565b50620001747f9f2df0fed2c77648de5860a4cc508cd0818c85b8b8a1ab4ceeef8d981c8956a682620002ac565b50620001a17f65d7a28e3265b37a6474929f336521b332c1681b933f6cb9f3376673440d862a82620002ac565b5081156200024a57620001ce81620001bc6012600a620007e2565b620001c89085620007fa565b6200035f565b6001600160a01b0381167f9d89e36eadf856db0ad9ffb5a569e07f95634dddd9501141ecf04820484ad0dc620002076012600a620007e2565b620002139085620007fa565b6040805191825260208201819052600e908201526d696e697469616c5f737570706c7960901b606082015260800160405180910390a25b50506200082a565b600580546001600160a01b03838116610100818102610100600160a81b031985161790945560405193909204169182907f8be0079c531659141344cd1fd0a4f28419497f9722a3daafe3b4186f6b6457e090600090a35050565b60008281526006602090815260408083206001600160a01b038516845290915281205460ff16620003555760008381526006602090815260408083206001600160a01b03861684529091529020805460ff191660011790556200030c3390565b6001600160a01b0316826001600160a01b0316847f2f8788117e7eff1d82e926ec794901d17c78024a50270940304540a733656f0d60405160405180910390a450600162000359565b5060005b92915050565b6001600160a01b0382166200038b5760405163ec442f0560e01b815260006004820152602401620000c1565b62000399600083836200039d565b5050565b620003aa838383620003af565b505050565b620003b9620003c6565b620003aa838383620003ed565b60055460ff1615620003eb5760405163d93c066560e01b815260040160405180910390fd5b565b6001600160a01b0383166200041c57806002600082825462000410919062000814565b90915550620004909050565b6001600160a01b03831660009081526020819052604090205481811015620004715760405163391434e360e21b81526001600160a01b03851660048201526024810182905260448101839052606401620000c1565b6001600160a01b03841660009081526020819052604090209082900390555b6001600160a01b038216620004ae57600280548290039055620004cd565b6001600160a01b03821660009081526020819052604090208054820190555b816001600160a01b0316836001600160a01b03167fddf252ad1be2c89b69c2b068fc378daa952ba7f163c4a11628f55a4df523b3ef836040516200051391815260200190565b60405180910390a3505050565b600080604083850312156200053457600080fd5b825160208401519092506001600160a01b03811681146200055457600080fd5b809150509250929050565b634e487b7160e01b600052604160045260246000fd5b600181811c908216806200058a57607f821691505b602082108103620005ab57634e487b7160e01b600052602260045260246000fd5b50919050565b601f821115620003aa57600081815260208120601f850160051c81016020861015620005da5750805b601f850160051c820191505b81811015620005fb57828155600101620005e6565b505050505050565b81516001600160401b038111156200061f576200061f6200055f565b620006378162000630845462000575565b84620005b1565b602080601f8311600181146200066f5760008415620006565750858301515b600019600386901b1c1916600185901b178555620005fb565b600085815260208120601f198616915b82811015620006a0578886015182559484019460019091019084016200067f565b5085821015620006bf5787850151600019600388901b60f8161c191681555b5050505050600190811b01905550565b634e487b7160e01b600052601160045260246000fd5b600181815b80851115620007265781600019048211156200070a576200070a620006cf565b808516156200071857918102915b93841c9390800290620006ea565b509250929050565b6000826200073f5750600162000359565b816200074e5750600062000359565b8160018114620007675760028114620007725762000792565b600191505062000359565b60ff841115620007865762000786620006cf565b50506001821b62000359565b5060208310610133831016604e8410600b8410161715620007b7575081810a62000359565b620007c38383620006e5565b8060001904821115620007da57620007da620006cf565b029392505050565b6000620007f360ff8416836200072e565b9392505050565b8082028115828204841417620003595762000359620006cf565b80820180821115620003595762000359620006cf565b611436806200083a6000396000f3fe608060405234801561001057600080fd5b50600436106101e55760003560e01c806379cc67901161010f578063a9059cbb116100a2578063d547741f11610071578063d547741f146103fe578063dd62ed3e14610411578063e63ab1e91461044a578063f2fde38b1461047157600080fd5b8063a9059cbb146103b0578063aa271e1a146103c3578063d3fc9864146103d6578063d5391393146103e957600080fd5b806395d89b41116100de57806395d89b411461037a578063979430d214610382578063983b2d5614610395578063a217fddf146103a857600080fd5b806379cc6790146103235780638456cb59146103365780638da5cb5b1461033e57806391d148541461036757600080fd5b80633092afd51161018757806342966c681161015657806342966c68146102d45780635c975abb146102e757806370a08231146102f2578063715018a61461031b57600080fd5b80633092afd514610297578063313ce567146102aa57806336568abe146102b95780633f4ba83a146102cc57600080fd5b806318160ddd116101c357806318160ddd1461023a57806323b872dd1461024c578063248a9ca31461025f5780632f2ff15d1461028257600080fd5b806301ffc9a7146101ea57806306fdde0314610212578063095ea7b314610227575b600080fd5b6101fd6101f83660046110ed565b610484565b60405190151581526020015b60405180910390f35b61021a6104bb565b6040516102099190611164565b6101fd610235366004611193565b61054d565b6002545b604051908152602001610209565b6101fd61025a3660046111bd565b610565565b61023e61026d3660046111f9565b60009081526006602052604090206001015490565b610295610290366004611212565b610589565b005b6102956102a536600461123e565b6105b4565b60405160128152602001610209565b6102956102c7366004611212565b61060f565b610295610647565b6102956102e23660046111f9565b61067c565b60055460ff166101fd565b61023e61030036600461123e565b6001600160a01b031660009081526020819052604090205490565b610295610686565b610295610331366004611193565b61069a565b6102956106b3565b60055461010090046001600160a01b03166040516001600160a01b039091168152602001610209565b6101fd610375366004611212565b6106e5565b61021a610710565b61029561039036600461126f565b61071f565b6102956103a336600461123e565b610873565b61023e600081565b6101fd6103be366004611193565b610930565b6101fd6103d136600461123e565b61093e565b6102956103e436600461126f565b610958565b61023e6000805160206113e183398151915281565b61029561040c366004611212565b610a7d565b61023e61041f36600461133a565b6001600160a01b03918216600090815260016020908152604080832093909416825291909152205490565b61023e7f65d7a28e3265b37a6474929f336521b332c1681b933f6cb9f3376673440d862a81565b61029561047f36600461123e565b610aa2565b60006001600160e01b03198216637965db0b60e01b14806104b557506301ffc9a760e01b6001600160e01b03198316145b92915050565b6060600380546104ca90611364565b80601f01602080910402602001604051908101604052809291908181526020018280546104f690611364565b80156105435780601f1061051857610100808354040283529160200191610543565b820191906000526020600020905b81548152906001019060200180831161052657829003601f168201915b5050505050905090565b60003361055b818585610add565b5060019392505050565b600033610573858285610aea565b61057e858585610b63565b506001949350505050565b6000828152600660205260409020600101546105a481610bc2565b6105ae8383610bcc565b50505050565b60006105bf81610bc2565b6105d76000805160206113e183398151915283610a7d565b6040516001600160a01b038316907fe94479a9f7e1952cc78f2d6baab678adc1b772d936c6583def489e524cb6669290600090a25050565b6001600160a01b03811633146106385760405163334bd91960e11b815260040160405180910390fd5b6106428282610c60565b505050565b7f65d7a28e3265b37a6474929f336521b332c1681b933f6cb9f3376673440d862a61067181610bc2565b610679610ccd565b50565b6106793382610d1f565b61068e610d55565b6106986000610d88565b565b6106a5823383610aea565b6106af8282610d1f565b5050565b7f65d7a28e3265b37a6474929f336521b332c1681b933f6cb9f3376673440d862a6106dd81610bc2565b610679610de2565b60009182526006602090815260408084206001600160a01b0393909316845291905290205460ff1690565b6060600480546104ca90611364565b6001600160a01b03831633148061074957506107496000805160206113e1833981519152336106e5565b6107a85760405162461bcd60e51b815260206004820152602560248201527f56454732313a2063616c6c6572206d757374206265206f776e6572206f72206d60448201526434b73a32b960d91b60648201526084015b60405180910390fd5b816107c8846001600160a01b031660009081526020819052604090205490565b10156108215760405162461bcd60e51b815260206004820152602260248201527f56454732313a206275726e20616d6f756e7420657863656564732062616c616e604482015261636560f01b606482015260840161079f565b61082b8383610d1f565b826001600160a01b03167ffad31924d655455395c87544c8aa1ffdb5a7505a22a3c2e03f28003b6556a75f838360405161086692919061139e565b60405180910390a2505050565b600061087e81610bc2565b6001600160a01b0382166108e05760405162461bcd60e51b8152602060048201526024808201527f56454732313a206d696e7465722063616e6e6f74206265207a65726f206164646044820152637265737360e01b606482015260840161079f565b6108f86000805160206113e183398151915283610589565b6040516001600160a01b038316907f6ae172837ea30b801fbfcdd4108aa1d5bf8ff775444fd70256b44e6bf3dfc3f690600090a25050565b60003361055b818585610b63565b60006104b56000805160206113e1833981519152836106e5565b6000805160206113e183398151915261097081610bc2565b610978610e1f565b6001600160a01b0384166109ce5760405162461bcd60e51b815260206004820152601b60248201527f56454732313a206d696e7420746f207a65726f20616464726573730000000000604482015260640161079f565b60008311610a2a5760405162461bcd60e51b815260206004820152602360248201527f56454732313a206d696e7420616d6f756e74206d75737420626520706f73697460448201526269766560e81b606482015260840161079f565b610a348484610e43565b836001600160a01b03167f9d89e36eadf856db0ad9ffb5a569e07f95634dddd9501141ecf04820484ad0dc8484604051610a6f92919061139e565b60405180910390a250505050565b600082815260066020526040902060010154610a9881610bc2565b6105ae8383610c60565b610aaa610d55565b6001600160a01b038116610ad457604051631e4fbdf760e01b81526000600482015260240161079f565b61067981610d88565b6106428383836001610e79565b6001600160a01b038381166000908152600160209081526040808320938616835292905220546000198110156105ae5781811015610b5457604051637dc7a0d960e11b81526001600160a01b0384166004820152602481018290526044810183905260640161079f565b6105ae84848484036000610e79565b6001600160a01b038316610b8d57604051634b637e8f60e11b81526000600482015260240161079f565b6001600160a01b038216610bb75760405163ec442f0560e01b81526000600482015260240161079f565b610642838383610f4e565b6106798133610f59565b6000610bd883836106e5565b610c585760008381526006602090815260408083206001600160a01b03861684529091529020805460ff19166001179055610c103390565b6001600160a01b0316826001600160a01b0316847f2f8788117e7eff1d82e926ec794901d17c78024a50270940304540a733656f0d60405160405180910390a45060016104b5565b5060006104b5565b6000610c6c83836106e5565b15610c585760008381526006602090815260408083206001600160a01b0386168085529252808320805460ff1916905551339286917ff6391f5c32d9c69d2a47ea670b442974b53935d1edc7fd64eb21e047a839171b9190a45060016104b5565b610cd5610f92565b6005805460ff191690557f5db9ee0a495bf2e6ff9c91a7834c1ba4fdd244a5e8aa4e537bd38aeae4b073aa335b6040516001600160a01b03909116815260200160405180910390a1565b6001600160a01b038216610d4957604051634b637e8f60e11b81526000600482015260240161079f565b6106af82600083610f4e565b6005546001600160a01b036101009091041633146106985760405163118cdaa760e01b815233600482015260240161079f565b600580546001600160a01b03838116610100818102610100600160a81b031985161790945560405193909204169182907f8be0079c531659141344cd1fd0a4f28419497f9722a3daafe3b4186f6b6457e090600090a35050565b610dea610e1f565b6005805460ff191660011790557f62e78cea01bee320cd4e420270b5ea74000d11b0c9f74754ebdbfc544b05a258610d023390565b60055460ff16156106985760405163d93c066560e01b815260040160405180910390fd5b6001600160a01b038216610e6d5760405163ec442f0560e01b81526000600482015260240161079f565b6106af60008383610f4e565b6001600160a01b038416610ea35760405163e602df0560e01b81526000600482015260240161079f565b6001600160a01b038316610ecd57604051634a1406b160e11b81526000600482015260240161079f565b6001600160a01b03808516600090815260016020908152604080832093871683529290522082905580156105ae57826001600160a01b0316846001600160a01b03167f8c5be1e5ebec7d5bd14f71427d1e84f3dd0314c0f7b2291e5b200ac8c7c3b92584604051610f4091815260200190565b60405180910390a350505050565b610642838383610fb5565b610f6382826106e5565b6106af5760405163e2517d3f60e01b81526001600160a01b03821660048201526024810183905260440161079f565b60055460ff1661069857604051638dfc202b60e01b815260040160405180910390fd5b610fbd610e1f565b6106428383836001600160a01b038316610fee578060026000828254610fe391906113bf565b909155506110609050565b6001600160a01b038316600090815260208190526040902054818110156110415760405163391434e360e21b81526001600160a01b0385166004820152602481018290526044810183905260640161079f565b6001600160a01b03841660009081526020819052604090209082900390555b6001600160a01b03821661107c5760028054829003905561109b565b6001600160a01b03821660009081526020819052604090208054820190555b816001600160a01b0316836001600160a01b03167fddf252ad1be2c89b69c2b068fc378daa952ba7f163c4a11628f55a4df523b3ef836040516110e091815260200190565b60405180910390a3505050565b6000602082840312156110ff57600080fd5b81356001600160e01b03198116811461111757600080fd5b9392505050565b6000815180845260005b8181101561114457602081850181015186830182015201611128565b506000602082860101526020601f19601f83011685010191505092915050565b602081526000611117602083018461111e565b80356001600160a01b038116811461118e57600080fd5b919050565b600080604083850312156111a657600080fd5b6111af83611177565b946020939093013593505050565b6000806000606084860312156111d257600080fd5b6111db84611177565b92506111e960208501611177565b9150604084013590509250925092565b60006020828403121561120b57600080fd5b5035919050565b6000806040838503121561122557600080fd5b8235915061123560208401611177565b90509250929050565b60006020828403121561125057600080fd5b61111782611177565b634e487b7160e01b600052604160045260246000fd5b60008060006060848603121561128457600080fd5b61128d84611177565b925060208401359150604084013567ffffffffffffffff808211156112b157600080fd5b818601915086601f8301126112c557600080fd5b8135818111156112d7576112d7611259565b604051601f8201601f19908116603f011681019083821181831017156112ff576112ff611259565b8160405282815289602084870101111561131857600080fd5b8260208601602083013760006020848301015280955050505050509250925092565b6000806040838503121561134d57600080fd5b61135683611177565b915061123560208401611177565b600181811c9082168061137857607f821691505b60208210810361139857634e487b7160e01b600052602260045260246000fd5b50919050565b8281526040602082015260006113b7604083018461111e565b949350505050565b808201808211156104b557634e487b7160e01b600052601160045260246000fdfe9f2df0fed2c77648de5860a4cc508cd0818c85b8b8a1ab4ceeef8d981c8956a6a2646970667358221220bf1d958f39008795aeaeac9fb53b137bd29eb1728753e2e3e626572d04fb6a0564736f6c63430008140033",
  "linkReferences": {},
  "deployedLinkReferences": {}
}